{
  "abi": [
    {
      "inputs": [],
      "name": "ECDSA__InvalidS",
      "type": "error"
    },
    {
      "inputs": [],
      "name": "ECDSA__InvalidSignature",
      "type": "error"
    },
    {
      "inputs": [],
      "name": "ECDSA__InvalidV",
      "type": "error"
    },
    {
      "inputs": [],
      "name": "ERC165Base__InvalidInterfaceId",
      "type": "error"
    },
    {
      "inputs": [],
      "name": "ERC20Base__ApproveFromZeroAddress",
      "type": "error"
    },
    {
      "inputs": [],
      "name": "ERC20Base__ApproveToZeroAddress",
      "type": "error"
    },
    {
      "inputs": [],
      "name": "ERC20Base__BurnExceedsBalance",
      "type": "error"
    },
    {
      "inputs": [],
      "name": "ERC20Base__BurnFromZeroAddress",
      "type": "error"
    },
    {
      "inputs": [],
      "name": "ERC20Base__InsufficientAllowance",
      "type": "error"
    },
    {
      "inputs": [],
      "name": "ERC20Base__MintToZeroAddress",
      "type": "error"
    },
    {
      "inputs": [],
      "name": "ERC20Base__TransferExceedsBalance",
      "type": "error"
    },
    {
      "inputs": [],
      "name": "ERC20Base__TransferFromZeroAddress",
      "type": "error"
    },
    {
      "inputs": [],
      "name": "ERC20Base__TransferToZeroAddress",
      "type": "error"
    },
    {
      "inputs": [],
      "name": "ERC20Extended__ExcessiveAllowance",
      "type": "error"
    },
    {
      "inputs": [],
      "name": "ERC20Extended__InsufficientAllowance",
      "type": "error"
    },
    {
      "inputs": [],
      "name": "ERC20Permit__ExpiredDeadline",
      "type": "error"
    },
    {
      "inputs": [],
      "name": "ERC20Permit__InvalidSignature",
      "type": "error"
    },
    {
      "inputs": [],
      "name": "Ownable__NotOwner",
      "type": "error"
    },
    {
      "inputs": [],
      "name": "Ownable__NotTransitiveOwner",
      "type": "error"
    },
    {
      "anonymous": false,
      "inputs": [
        {
          "indexed": true,
          "internalType": "address",
          "name": "owner",
          "type": "address"
        },
        {
          "indexed": true,
          "internalType": "address",
          "name": "spender",
          "type": "address"
        },
        {
          "indexed": false,
          "internalType": "uint256",
          "name": "value",
          "type": "uint256"
        }
      ],
      "name": "Approval",
      "type": "event"
    },
    {
      "anonymous": false,
      "inputs": [
        {
          "indexed": false,
          "internalType": "string",
          "name": "prevURI",
          "type": "string"
        },
        {
          "indexed": false,
          "internalType": "string",
          "name": "newURI",
          "type": "string"
        }
      ],
      "name": "ContractURIUpdated",
      "type": "event"
    },
    {
      "anonymous": false,
      "inputs": [
        {
          "indexed": false,
          "internalType": "uint8",
          "name": "version",
          "type": "uint8"
        }
      ],
      "name": "Initialized",
      "type": "event"
    },
    {
      "anonymous": false,
      "inputs": [
        {
          "indexed": true,
          "internalType": "address",
          "name": "previousOwner",
          "type": "address"
        },
        {
          "indexed": true,
          "internalType": "address",
          "name": "newOwner",
          "type": "address"
        }
      ],
      "name": "OwnershipTransferred",
      "type": "event"
    },
    {
      "anonymous": false,
      "inputs": [
        {
          "indexed": true,
          "internalType": "address",
          "name": "from",
          "type": "address"
        },
        {
          "indexed": true,
          "internalType": "address",
          "name": "to",
          "type": "address"
        },
        {
          "indexed": false,
          "internalType": "uint256",
          "name": "value",
          "type": "uint256"
        }
      ],
      "name": "Transfer",
      "type": "event"
    },
    {
      "inputs": [],
      "name": "DOMAIN_SEPARATOR",
      "outputs": [
        {
          "internalType": "bytes32",
          "name": "domainSeparator",
          "type": "bytes32"
        }
      ],
      "stateMutability": "view",
      "type": "function"
    },
    {
      "inputs": [
        {
          "internalType": "address",
          "name": "holder",
          "type": "address"
        },
        {
          "internalType": "address",
          "name": "spender",
          "type": "address"
        }
      ],
      "name": "allowance",
      "outputs": [
        {
          "internalType": "uint256",
          "name": "",
          "type": "uint256"
        }
      ],
      "stateMutability": "view",
      "type": "function"
    },
    {
      "inputs": [
        {
          "internalType": "address",
          "name": "spender",
          "type": "address"
        },
        {
          "internalType": "uint256",
          "name": "amount",
          "type": "uint256"
        }
      ],
      "name": "approve",
      "outputs": [
        {
          "internalType": "bool",
          "name": "",
          "type": "bool"
        }
      ],
      "stateMutability": "nonpayable",
      "type": "function"
    },
    {
      "inputs": [
        {
          "internalType": "address",
          "name": "account",
          "type": "address"
        }
      ],
      "name": "balanceOf",
      "outputs": [
        {
          "internalType": "uint256",
          "name": "",
          "type": "uint256"
        }
      ],
      "stateMutability": "view",
      "type": "function"
    },
    {
      "inputs": [
        {
          "internalType": "uint256",
          "name": "_amount",
          "type": "uint256"
        }
      ],
      "name": "burn",
      "outputs": [],
      "stateMutability": "nonpayable",
      "type": "function"
    },
    {
      "inputs": [],
      "name": "contractURI",
      "outputs": [
        {
          "internalType": "string",
          "name": "",
          "type": "string"
        }
      ],
      "stateMutability": "view",
      "type": "function"
    },
    {
      "inputs": [],
      "name": "decimals",
      "outputs": [
        {
          "internalType": "uint8",
          "name": "",
          "type": "uint8"
        }
      ],
      "stateMutability": "view",
      "type": "function"
    },
    {
      "inputs": [
        {
          "internalType": "address",
          "name": "spender",
          "type": "address"
        },
        {
          "internalType": "uint256",
          "name": "amount",
          "type": "uint256"
        }
      ],
      "name": "decreaseAllowance",
      "outputs": [
        {
          "internalType": "bool",
          "name": "",
          "type": "bool"
        }
      ],
      "stateMutability": "nonpayable",
      "type": "function"
    },
    {
      "inputs": [
        {
          "internalType": "address",
          "name": "spender",
          "type": "address"
        },
        {
          "internalType": "uint256",
          "name": "amount",
          "type": "uint256"
        }
      ],
      "name": "increaseAllowance",
      "outputs": [
        {
          "internalType": "bool",
          "name": "",
          "type": "bool"
        }
      ],
      "stateMutability": "nonpayable",
      "type": "function"
    },
    {
      "inputs": [
        {
          "internalType": "address",
          "name": "_owner",
          "type": "address"
        },
        {
          "internalType": "string",
          "name": "_name",
          "type": "string"
        },
        {
          "internalType": "string",
          "name": "_symbol",
          "type": "string"
        },
        {
          "internalType": "uint8",
          "name": "_decimals",
          "type": "uint8"
        },
        {
          "internalType": "uint256",
          "name": "supply",
          "type": "uint256"
        }
      ],
      "name": "initialize",
      "outputs": [],
      "stateMutability": "nonpayable",
      "type": "function"
    },
    {
      "inputs": [
        {
          "internalType": "address",
          "name": "_to",
          "type": "address"
        },
        {
          "internalType": "uint256",
          "name": "_amount",
          "type": "uint256"
        }
      ],
      "name": "mintTo",
      "outputs": [],
      "stateMutability": "nonpayable",
      "type": "function"
    },
    {
      "inputs": [
        {
          "internalType": "bytes[]",
          "name": "data",
          "type": "bytes[]"
        }
      ],
      "name": "multicall",
      "outputs": [
        {
          "internalType": "bytes[]",
          "name": "results",
          "type": "bytes[]"
        }
      ],
      "stateMutability": "nonpayable",
      "type": "function"
    },
    {
      "inputs": [],
      "name": "name",
      "outputs": [
        {
          "internalType": "string",
          "name": "",
          "type": "string"
        }
      ],
      "stateMutability": "view",
      "type": "function"
    },
    {
      "inputs": [
        {
          "internalType": "address",
          "name": "owner",
          "type": "address"
        }
      ],
      "name": "nonces",
      "outputs": [
        {
          "internalType": "uint256",
          "name": "",
          "type": "uint256"
        }
      ],
      "stateMutability": "view",
      "type": "function"
    },
    {
      "inputs": [],
      "name": "owner",
      "outputs": [
        {
          "internalType": "address",
          "name": "",
          "type": "address"
        }
      ],
      "stateMutability": "view",
      "type": "function"
    },
    {
      "inputs": [
        {
          "internalType": "address",
          "name": "owner",
          "type": "address"
        },
        {
          "internalType": "address",
          "name": "spender",
          "type": "address"
        },
        {
          "internalType": "uint256",
          "name": "amount",
          "type": "uint256"
        },
        {
          "internalType": "uint256",
          "name": "deadline",
          "type": "uint256"
        },
        {
          "internalType": "uint8",
          "name": "v",
          "type": "uint8"
        },
        {
          "internalType": "bytes32",
          "name": "r",
          "type": "bytes32"
        },
        {
          "internalType": "bytes32",
          "name": "s",
          "type": "bytes32"
        }
      ],
      "name": "permit",
      "outputs": [],
      "stateMutability": "nonpayable",
      "type": "function"
    },
    {
      "inputs": [
        {
          "internalType": "string",
          "name": "_uri",
          "type": "string"
        }
      ],
      "name": "setContractURI",
      "outputs": [],
      "stateMutability": "nonpayable",
      "type": "function"
    },
    {
      "inputs": [
        {
          "internalType": "bytes4",
          "name": "interfaceId",
          "type": "bytes4"
        }
      ],
      "name": "supportsInterface",
      "outputs": [
        {
          "internalType": "bool",
          "name": "",
          "type": "bool"
        }
      ],
      "stateMutability": "view",
      "type": "function"
    },
    {
      "inputs": [],
      "name": "symbol",
      "outputs": [
        {
          "internalType": "string",
          "name": "",
          "type": "string"
        }
      ],
      "stateMutability": "view",
      "type": "function"
    },
    {
      "inputs": [],
      "name": "totalSupply",
      "outputs": [
        {
          "internalType": "uint256",
          "name": "",
          "type": "uint256"
        }
      ],
      "stateMutability": "view",
      "type": "function"
    },
    {
      "inputs": [
        {
          "internalType": "address",
          "name": "recipient",
          "type": "address"
        },
        {
          "internalType": "uint256",
          "name": "amount",
          "type": "uint256"
        }
      ],
      "name": "transfer",
      "outputs": [
        {
          "internalType": "bool",
          "name": "",
          "type": "bool"
        }
      ],
      "stateMutability": "nonpayable",
      "type": "function"
    },
    {
      "inputs": [
        {
          "internalType": "address",
          "name": "holder",
          "type": "address"
        },
        {
          "internalType": "address",
          "name": "recipient",
          "type": "address"
        },
        {
          "internalType": "uint256",
          "name": "amount",
          "type": "uint256"
        }
      ],
      "name": "transferFrom",
      "outputs": [
        {
          "internalType": "bool",
          "name": "",
          "type": "bool"
        }
      ],
      "stateMutability": "nonpayable",
      "type": "function"
    },
    {
      "inputs": [
        {
          "internalType": "address",
          "name": "account",
          "type": "address"
        }
      ],
      "name": "transferOwnership",
      "outputs": [],
      "stateMutability": "nonpayable",
      "type": "function"
    }
  ],
  "bytecode": {
    "object": "0x608060405234801561001057600080fd5b50611c85806100206000396000f3fe608060405234801561001057600080fd5b506004361061014d5760003560e01c80637ecebe00116100c3578063ac9650d81161007c578063ac9650d8146102af578063d505accf146102cf578063d72bdc53146102e2578063dd62ed3e146102f5578063e8a3d48514610308578063f2fde38b1461031057600080fd5b80637ecebe001461023b5780638da5cb5b1461024e578063938e3d7b1461026e57806395d89b4114610281578063a457c2d714610289578063a9059cbb1461029c57600080fd5b8063313ce56711610115578063313ce567146101cb5780633644e515146101e557806339509351146101ed57806342966c6814610200578063449a52f81461021557806370a082311461022857600080fd5b806301ffc9a71461015257806306fdde031461017a578063095ea7b31461018f57806318160ddd146101a257806323b872dd146101b8575b600080fd5b6101656101603660046115be565b610323565b60405190151581526020015b60405180910390f35b610182610366565b604051610171919061162e565b61016561019d36600461165d565b610375565b6101aa610389565b604051908152602001610171565b6101656101c6366004611687565b6103b3565b6101d36103c8565b60405160ff9091168152602001610171565b6101aa6103f5565b6101656101fb36600461165d565b6103ff565b61021361020e3660046116c3565b61040b565b005b61021361022336600461165d565b61046a565b6101aa6102363660046116dc565b610513565b6101aa6102493660046116dc565b61051e565b610256610529565b6040516001600160a01b039091168152602001610171565b61021361027c36600461179a565b610533565b610182610581565b61016561029736600461165d565b61058b565b6101656102aa36600461165d565b610597565b6102c26102bd3660046117cf565b6105a4565b6040516101719190611844565b6102136102dd3660046118b7565b6106bf565b6102136102f0366004611921565b6106d7565b6101aa6103033660046119ae565b6108b7565b6101826108c3565b61021361031e3660046116dc565b6108cd565b6001600160e01b0319811660009081527ffc606c433378e3a7e0a6a531deac289b66caa1b4aa8554fd4ab2c6f1570f92d8602052604081205460ff165b92915050565b606061037061090f565b905090565b60006103823384846109c1565b9392505050565b60006103707fc991b2e918acaba8e5721668ed0b1982684e5a8692a621bcd2d7ef326bb015b65490565b60006103c0848484610a96565b949350505050565b60006103707f2967a798b92539a1b9eefe4d8eb931f96b68d27665e276f1bee2d5db7f7430495460ff1690565b6000610370610ab9565b60006103828383610afb565b8061041533610b3a565b101561045d5760405162461bcd60e51b81526020600482015260126024820152716e6f7420656e6f7567682062616c616e636560701b60448201526064015b60405180910390fd5b6104673382610b6b565b50565b610472610c59565b6104be5760405162461bcd60e51b815260206004820152601760248201527f4e6f7420617574686f72697a656420746f206d696e742e0000000000000000006044820152606401610454565b806000036105055760405162461bcd60e51b815260206004820152601460248201527326b4b73a34b733903d32b937903a37b5b2b7399760611b6044820152606401610454565b61050f8282610c7c565b5050565b600061036082610b3a565b600061036082610d5e565b6000610370610d86565b61053b610db4565b6105785760405162461bcd60e51b815260206004820152600e60248201526d139bdd08185d5d1a1bdc9a5e995960921b6044820152606401610454565b61046781610dbe565b6060610370610ebf565b60006103828383610ef0565b6000610382338484610f06565b60608167ffffffffffffffff8111156105bf576105bf6116f7565b6040519080825280602002602001820160405280156105f257816020015b60608152602001906001900390816105dd5790505b50905060005b828110156106b85760008030868685818110610616576106166119e1565b905060200281019061062891906119f7565b604051610636929190611a45565b600060405180830381855af49150503d8060008114610671576040519150601f19603f3d011682016040523d82523d6000602084013e610676565b606091505b509150915081156106a45780848481518110610694576106946119e1565b60200260200101819052506106ae565b3d6000803e3d6000fd5b50506001016105f8565b5092915050565b6106ce87878787878787611037565b50505050505050565b600080516020611c1083398151915254610100900460ff161580801561071857506001610713600080516020611c108339815191525460ff1690565b60ff16105b806107425750303b1580156107425750600080516020611c108339815191525460ff1660ff166001145b6107a55760405162461bcd60e51b815260206004820152602e60248201527f496e697469616c697a61626c653a20636f6e747261637420697320616c72656160448201526d191e481a5b9a5d1a585b1a5e995960921b6064820152608401610454565b600080516020611c10833981519152805460ff1916600117905580156107cf576107cf60016111d7565b6107d8866111fe565b6107e185611278565b6107ea846112a3565b7f2967a798b92539a1b9eefe4d8eb931f96b68d27665e276f1bee2d5db7f743049805460ff191660ff85161790556108223383610c7c565b6108346301ffc9a760e01b60016112ce565b6108466336372b0760e01b60016112ce565b610858634ec7fbed60e11b60016112ce565b61086a633d96f4ff60e11b60016112ce565b80156108af5761087a60006111d7565b604051600181527f7f26b83ff96e1f2b6a682f133852f6798a09c465da95921460cefb38474024989060200160405180910390a15b505050505050565b60006103828383611344565b606061037061138e565b6108d5610d86565b6001600160a01b0316336001600160a01b03161461090657604051632f7a8ee160e01b815260040160405180910390fd5b610467816113b6565b60607f2967a798b92539a1b9eefe4d8eb931f96b68d27665e276f1bee2d5db7f7430475b805461093e90611a55565b80601f016020809104026020016040519081016040528092919081815260200182805461096a90611a55565b80156109b75780601f1061098c576101008083540402835291602001916109b7565b820191906000526020600020905b81548152906001019060200180831161099a57829003601f168201915b5050505050905090565b60006001600160a01b0384166109ea57604051635a68b7ab60e01b815260040160405180910390fd5b6001600160a01b038316610a10576040516262920b60e91b815260040160405180910390fd5b6001600160a01b0384811660008181527fc991b2e918acaba8e5721668ed0b1982684e5a8692a621bcd2d7ef326bb015b56020908152604080832094881680845294825291829020869055815186815291517f8c5be1e5ebec7d5bd14f71427d1e84f3dd0314c0f7b2291e5b200ac8c7c3b9259281900390910190a35060019392505050565b6000610aa38433846113bf565b610aae848484610f06565b506001949350505050565b4660009081527fbb9c3660b51e1fafa886fcf600a68efa81371bd50359eccba98f0c4fff2cfeba602052604081205490819003610af857610370611401565b90565b600080610b083385611344565b9050828101811115610b2d5760405163d256efb160e01b815260040160405180910390fd5b6103c033858584016109c1565b6000600080516020611c308339815191525b6001600160a01b03909216600090815260209290925250604090205490565b6001600160a01b038216610b92576040516378f1627760e11b815260040160405180910390fd5b6001600160a01b0382166000908152600080516020611c30833981519152602081905260409091205480831115610bdc5760405163b1d35b2360e01b815260040160405180910390fd5b6001600160a01b03841660009081526020839052604081208483039055600283018054859290610c0d908490611aa5565b90915550506040518381526000906001600160a01b038616907fddf252ad1be2c89b69c2b068fc378daa952ba7f163c4a11628f55a4df523b3ef9060200160405180910390a350505050565b6000610c63610529565b6001600160a01b0316336001600160a01b031614905090565b6001600160a01b038216610ca35760405163da007acd60e01b815260040160405180910390fd5b7fc991b2e918acaba8e5721668ed0b1982684e5a8692a621bcd2d7ef326bb015b68054600080516020611c30833981519152918391600090610ce6908490611ab8565b90915550506001600160a01b03831660009081526020829052604081208054849290610d13908490611ab8565b90915550506040518281526001600160a01b038416906000907fddf252ad1be2c89b69c2b068fc378daa952ba7f163c4a11628f55a4df523b3ef9060200160405180910390a3505050565b60007fbb9c3660b51e1fafa886fcf600a68efa81371bd50359eccba98f0c4fff2cfeb9610b4c565b7f8a22373512790c48b83a1fe2efdd2888d4a917bcdc24d0adf63e60f671680460546001600160a01b031690565b6000610c63610d86565b7f377d51b8f3c321ac06c08d08eb5924030a0062cf68630d0ace73345d5f49f6fd80546000908290610def90611a55565b80601f0160208091040260200160405190810160405280929190818152602001828054610e1b90611a55565b8015610e685780601f10610e3d57610100808354040283529160200191610e68565b820191906000526020600020905b815481529060010190602001808311610e4b57829003601f168201915b5050505050905082826000019081610e809190611b11565b507fc9c7c3fe08b88b4df9d4d47ef47d2c43d55c025a0ba88ca442580ed9e7348a168184604051610eb2929190611bd1565b60405180910390a1505050565b60607f2967a798b92539a1b9eefe4d8eb931f96b68d27665e276f1bee2d5db7f743047600101805461093e90611a55565b6000610efd3384846113bf565b50600192915050565b60006001600160a01b038416610f2f576040516368551d5f60e01b815260040160405180910390fd5b6001600160a01b038316610f56576040516320a2645160e21b815260040160405180910390fd5b6001600160a01b0384166000908152600080516020611c30833981519152602081905260409091205480841115610fa057604051637183160b60e01b815260040160405180910390fd5b6001600160a01b03808716600090815260208490526040808220878503905591871681529081208054869290610fd7908490611ab8565b92505081905550846001600160a01b0316866001600160a01b03167fddf252ad1be2c89b69c2b068fc378daa952ba7f163c4a11628f55a4df523b3ef8660405161102391815260200190565b60405180910390a350600195945050505050565b834211156110585760405163384f7ce560e21b815260040160405180910390fd5b6001600160a01b03871660009081527fbb9c3660b51e1fafa886fcf600a68efa81371bd50359eccba98f0c4fff2cfeb9602081815260408084205481517f6e71edae12b1b97f4d1f60370fef10105fa2faae0126114a169c64845d6126c981528084018d90528083018c9052606081018b90526080810182905260a081018a905260c090204686527fbb9c3660b51e1fafa886fcf600a68efa81371bd50359eccba98f0c4fff2cfeba909352908420549293919290918190036111345761111d611401565b466000908152600186016020526040902081905590505b60405161190160f01b8152600281018290526022810184905260429020600061115f828a8a8a6114b4565b90508c6001600160a01b0316816001600160a01b03161461119357604051637570072b60e11b815260040160405180910390fd5b6001600160a01b038d1660009081526020879052604081208054916111b783611bf6565b91905055506111c78d8d8d6109c1565b5050505050505050505050505050565b600080516020611c1083398151915280549115156101000261ff0019909216919091179055565b7f8a22373512790c48b83a1fe2efdd2888d4a917bcdc24d0adf63e60f67168046080546040516001600160a01b038481169216907f8be0079c531659141344cd1fd0a4f28419497f9722a3daafe3b4186f6b6457e090600090a380546001600160a01b0319166001600160a01b0392909216919091179055565b7f2967a798b92539a1b9eefe4d8eb931f96b68d27665e276f1bee2d5db7f74304761050f8282611b11565b7f2967a798b92539a1b9eefe4d8eb931f96b68d27665e276f1bee2d5db7f74304861050f8282611b11565b6001600160e01b031980831690036112f95760405163b0a19dd560e01b815260040160405180910390fd5b6001600160e01b03199190911660009081527ffc606c433378e3a7e0a6a531deac289b66caa1b4aa8554fd4ab2c6f1570f92d860205260409020805460ff1916911515919091179055565b6001600160a01b0391821660009081527fc991b2e918acaba8e5721668ed0b1982684e5a8692a621bcd2d7ef326bb015b56020908152604080832093909416825291909152205490565b60607f377d51b8f3c321ac06c08d08eb5924030a0062cf68630d0ace73345d5f49f6fd610933565b610467816111fe565b60006113cb8484611344565b9050808211156113ed5760405162e14ccf60e11b815260040160405180910390fd5b6113fa84848484036109c1565b5050505050565b60007f8b73c3c69bb8fe3d512ecc4cf759cc79239f7b179b0ffacaa9a75d522b39400f61142c61090f565b80516020918201206040805180820190915260018152603160f81b9201919091527fc89efdaa54c0f20c7adf612882df0950f5a951637e0307cdcb4c672f298b8bc646604080516020810195909552840192909252606083015260808201523060a082015260c00160405160208183030381529060405280519060200120905090565b505050565b60007f7fffffffffffffffffffffffffffffff5d576e7357a4501ddfe92f46681b20a08211156114f75760405163e4a61add60e01b815260040160405180910390fd5b8360ff16601b1415801561150f57508360ff16601c14155b1561152d57604051630acd54a960e41b815260040160405180910390fd5b6040805160008082526020820180845288905260ff871692820192909252606081018590526080810184905260019060a0016020604051602081039080840390855afa158015611581573d6000803e3d6000fd5b5050604051601f1901519150506001600160a01b0381166115b5576040516347f3b32760e11b815260040160405180910390fd5b95945050505050565b6000602082840312156115d057600080fd5b81356001600160e01b03198116811461038257600080fd5b6000815180845260005b8181101561160e576020818501810151868301820152016115f2565b506000602082860101526020601f19601f83011685010191505092915050565b60208152600061038260208301846115e8565b80356001600160a01b038116811461165857600080fd5b919050565b6000806040838503121561167057600080fd5b61167983611641565b946020939093013593505050565b60008060006060848603121561169c57600080fd5b6116a584611641565b92506116b360208501611641565b9150604084013590509250925092565b6000602082840312156116d557600080fd5b5035919050565b6000602082840312156116ee57600080fd5b61038282611641565b634e487b7160e01b600052604160045260246000fd5b600082601f83011261171e57600080fd5b813567ffffffffffffffff80821115611739576117396116f7565b604051601f8301601f19908116603f01168101908282118183101715611761576117616116f7565b8160405283815286602085880101111561177a57600080fd5b836020870160208301376000602085830101528094505050505092915050565b6000602082840312156117ac57600080fd5b813567ffffffffffffffff8111156117c357600080fd5b6103c08482850161170d565b600080602083850312156117e257600080fd5b823567ffffffffffffffff808211156117fa57600080fd5b818501915085601f83011261180e57600080fd5b81358181111561181d57600080fd5b8660208260051b850101111561183257600080fd5b60209290920196919550909350505050565b6000602080830181845280855180835260408601915060408160051b870101925083870160005b8281101561189957603f198886030184526118878583516115e8565b9450928501929085019060010161186b565b5092979650505050505050565b803560ff8116811461165857600080fd5b600080600080600080600060e0888a0312156118d257600080fd5b6118db88611641565b96506118e960208901611641565b95506040880135945060608801359350611905608089016118a6565b925060a0880135915060c0880135905092959891949750929550565b600080600080600060a0868803121561193957600080fd5b61194286611641565b9450602086013567ffffffffffffffff8082111561195f57600080fd5b61196b89838a0161170d565b9550604088013591508082111561198157600080fd5b5061198e8882890161170d565b93505061199d606087016118a6565b949793965091946080013592915050565b600080604083850312156119c157600080fd5b6119ca83611641565b91506119d860208401611641565b90509250929050565b634e487b7160e01b600052603260045260246000fd5b6000808335601e19843603018112611a0e57600080fd5b83018035915067ffffffffffffffff821115611a2957600080fd5b602001915036819003821315611a3e57600080fd5b9250929050565b8183823760009101908152919050565b600181811c90821680611a6957607f821691505b602082108103611a8957634e487b7160e01b600052602260045260246000fd5b50919050565b634e487b7160e01b600052601160045260246000fd5b8181038181111561036057610360611a8f565b8082018082111561036057610360611a8f565b601f8211156114af57600081815260208120601f850160051c81016020861015611af25750805b601f850160051c820191505b818110156108af57828155600101611afe565b815167ffffffffffffffff811115611b2b57611b2b6116f7565b611b3f81611b398454611a55565b84611acb565b602080601f831160018114611b745760008415611b5c5750858301515b600019600386901b1c1916600185901b1785556108af565b600085815260208120601f198616915b82811015611ba357888601518255948401946001909101908401611b84565b5085821015611bc15787850151600019600388901b60f8161c191681555b5050505050600190811b01905550565b604081526000611be460408301856115e8565b82810360208401526115b581856115e8565b600060018201611c0857611c08611a8f565b506001019056fe57273313c8845d368ba3ea905aa1935a070969a02baf31b3abd35b1dbe87cdf4c991b2e918acaba8e5721668ed0b1982684e5a8692a621bcd2d7ef326bb015b4a26469706673582212200dd59a76a4a82271117ab0530090907c368963bddd1c092cf5d4b32223067adb64736f6c63430008100033",
    "linkReferences": {}
  },
  "methodIdentifiers": {
    "DOMAIN_SEPARATOR()": "3644e515",
    "allowance(address,address)": "dd62ed3e",
    "approve(address,uint256)": "095ea7b3",
    "balanceOf(address)": "70a08231",
    "burn(uint256)": "42966c68",
    "contractURI()": "e8a3d485",
    "decimals()": "313ce567",
    "decreaseAllowance(address,uint256)": "a457c2d7",
    "increaseAllowance(address,uint256)": "39509351",
    "initialize(address,string,string,uint8,uint256)": "d72bdc53",
    "mintTo(address,uint256)": "449a52f8",
    "multicall(bytes[])": "ac9650d8",
    "name()": "06fdde03",
    "nonces(address)": "7ecebe00",
    "owner()": "8da5cb5b",
    "permit(address,address,uint256,uint256,uint8,bytes32,bytes32)": "d505accf",
    "setContractURI(string)": "938e3d7b",
    "supportsInterface(bytes4)": "01ffc9a7",
    "symbol()": "95d89b41",
    "totalSupply()": "18160ddd",
    "transfer(address,uint256)": "a9059cbb",
    "transferFrom(address,address,uint256)": "23b872dd",
    "transferOwnership(address)": "f2fde38b"
  },
  "id": 155
}