{
  "abi": [
    {
      "inputs": [
        {
          "internalType": "address",
          "name": "_template",
          "type": "address"
        },
        {
          "internalType": "address",
          "name": "_registry",
          "type": "address"
        },
        {
          "internalType": "address",
          "name": "_globals",
          "type": "address"
        }
      ],
      "stateMutability": "nonpayable",
      "type": "constructor"
    },
    {
      "inputs": [],
      "name": "Factory__FailedDeployment",
      "type": "error"
    },
    {
      "inputs": [],
      "name": "Ownable__NotOwner",
      "type": "error"
    },
    {
      "inputs": [],
      "name": "Ownable__NotTransitiveOwner",
      "type": "error"
    },
    {
      "anonymous": false,
      "inputs": [
        {
          "indexed": false,
          "internalType": "address",
          "name": "id",
          "type": "address"
        },
        {
          "indexed": false,
          "internalType": "address",
          "name": "owner",
          "type": "address"
        },
        {
          "indexed": false,
          "internalType": "string",
          "name": "name",
          "type": "string"
        }
      ],
      "name": "Created",
      "type": "event"
    },
    {
      "anonymous": false,
      "inputs": [
        {
          "indexed": true,
          "internalType": "address",
          "name": "previousOwner",
          "type": "address"
        },
        {
          "indexed": true,
          "internalType": "address",
          "name": "newOwner",
          "type": "address"
        }
      ],
      "name": "OwnershipTransferred",
      "type": "event"
    },
    {
      "inputs": [
        {
          "internalType": "bytes32",
          "name": "",
          "type": "bytes32"
        }
      ],
      "name": "apps",
      "outputs": [
        {
          "internalType": "address",
          "name": "",
          "type": "address"
        }
      ],
      "stateMutability": "view",
      "type": "function"
    },
    {
      "inputs": [
        {
          "internalType": "bytes32",
          "name": "_name",
          "type": "bytes32"
        }
      ],
      "name": "create",
      "outputs": [
        {
          "internalType": "address",
          "name": "id",
          "type": "address"
        }
      ],
      "stateMutability": "nonpayable",
      "type": "function"
    },
    {
      "inputs": [],
      "name": "globals",
      "outputs": [
        {
          "internalType": "address",
          "name": "",
          "type": "address"
        }
      ],
      "stateMutability": "view",
      "type": "function"
    },
    {
      "inputs": [],
      "name": "owner",
      "outputs": [
        {
          "internalType": "address",
          "name": "",
          "type": "address"
        }
      ],
      "stateMutability": "view",
      "type": "function"
    },
    {
      "inputs": [],
      "name": "registry",
      "outputs": [
        {
          "internalType": "address",
          "name": "",
          "type": "address"
        }
      ],
      "stateMutability": "view",
      "type": "function"
    },
    {
      "inputs": [
        {
          "internalType": "address",
          "name": "_globals",
          "type": "address"
        }
      ],
      "name": "setGlobals",
      "outputs": [],
      "stateMutability": "nonpayable",
      "type": "function"
    },
    {
      "inputs": [
        {
          "internalType": "address",
          "name": "_registry",
          "type": "address"
        }
      ],
      "name": "setRegistry",
      "outputs": [],
      "stateMutability": "nonpayable",
      "type": "function"
    },
    {
      "inputs": [
        {
          "internalType": "address",
          "name": "_template",
          "type": "address"
        }
      ],
      "name": "setTemplate",
      "outputs": [],
      "stateMutability": "nonpayable",
      "type": "function"
    },
    {
      "inputs": [],
      "name": "template",
      "outputs": [
        {
          "internalType": "address",
          "name": "",
          "type": "address"
        }
      ],
      "stateMutability": "view",
      "type": "function"
    },
    {
      "inputs": [
        {
          "internalType": "address",
          "name": "account",
          "type": "address"
        }
      ],
      "name": "transferOwnership",
      "outputs": [],
      "stateMutability": "nonpayable",
      "type": "function"
    }
  ],
  "bytecode": {
    "object": "0x608060405234801561001057600080fd5b5060405161082438038061082483398101604081905261002f9161012b565b6100383361007a565b600080546001600160a01b039485166001600160a01b03199182161790915560018054938516938216939093179092556002805491909316911617905561016e565b600061008e6100eb60201b6103e71760201c565b80546040519192506001600160a01b03808516929116907f8be0079c531659141344cd1fd0a4f28419497f9722a3daafe3b4186f6b6457e090600090a380546001600160a01b0319166001600160a01b0392909216919091179055565b7f8a22373512790c48b83a1fe2efdd2888d4a917bcdc24d0adf63e60f67168046090565b80516001600160a01b038116811461012657600080fd5b919050565b60008060006060848603121561014057600080fd5b6101498461010f565b92506101576020850161010f565b91506101656040850161010f565b90509250925092565b6106a78061017d6000396000f3fe608060405234801561001057600080fd5b506004361061009e5760003560e01c80638da5cb5b116100665780638da5cb5b14610136578063a91ee0dc1461013e578063c312452514610151578063cc2e0a261461013e578063f2fde38b1461016457600080fd5b806338bb6def146100a35780636f2ddd93146100e85780637368a8ce146100fb5780637b1039991461010e57806389c716d114610121575b600080fd5b6100cc6100b136600461056b565b6003602052600090815260409020546001600160a01b031681565b6040516001600160a01b03909116815260200160405180910390f35b6000546100cc906001600160a01b031681565b6100cc61010936600461056b565b610177565b6001546100cc906001600160a01b031681565b61013461012f366004610584565b6102dd565b005b6100cc610338565b61013461014c366004610584565b610347565b6002546100cc906001600160a01b031681565b610134610172366004610584565b6103a2565b6000818152600360205260408120546001600160a01b0316156101d45760405162461bcd60e51b81526020600482015260116024820152701b985b5948185b1c9958591e481d5cd959607a1b604482015260640160405180910390fd5b6000546101ea906001600160a01b03168361040b565b6000838152600360205260409081902080546001600160a01b0319166001600160a01b03848116918217909255600154600254935163184b955960e01b8152336004820152908316602482015292909116604483015291925063184b955990606401600060405180830381600087803b15801561026657600080fd5b505af115801561027a573d6000803e3d6000fd5b505050507f2bbe9d1b4d6f9393f1aeacee43586b45a4801c64fdff8910098422c886e7b1758133846040516020016102b491815260200190565b60408051601f19818403018152908290526102d09392916105d8565b60405180910390a1919050565b6102e5610428565b6001600160a01b0316336001600160a01b03161461031657604051632f7a8ee160e01b815260040160405180910390fd5b600080546001600160a01b0319166001600160a01b0392909216919091179055565b6000610342610428565b905090565b61034f610428565b6001600160a01b0316336001600160a01b03161461038057604051632f7a8ee160e01b815260040160405180910390fd5b600180546001600160a01b0319166001600160a01b0392909216919091179055565b6103aa610428565b6001600160a01b0316336001600160a01b0316146103db57604051632f7a8ee160e01b815260040160405180910390fd5b6103e481610441565b50565b7f8a22373512790c48b83a1fe2efdd2888d4a917bcdc24d0adf63e60f67168046090565b600061041f6104198461044a565b836104ca565b90505b92915050565b60006104326103e7565b546001600160a01b0316919050565b6103e481610504565b6060604051806040016040528060148152602001733d602d80600a3d3981f3363d3d373d3d3d363d7360601b815250826040518060400160405280600f81526020016e5af43d82803e903d91602b57fd5bf360881b8152506040516020016104b493929190610625565b6040516020818303038152906040529050919050565b60008260200183518381836000f59250506001600160a01b03821690506104225760405163ef35ca1960e01b815260040160405180910390fd5b600061050e6103e7565b80546040519192506001600160a01b03808516929116907f8be0079c531659141344cd1fd0a4f28419497f9722a3daafe3b4186f6b6457e090600090a380546001600160a01b0319166001600160a01b0392909216919091179055565b60006020828403121561057d57600080fd5b5035919050565b60006020828403121561059657600080fd5b81356001600160a01b03811681146105ad57600080fd5b9392505050565b60005b838110156105cf5781810151838201526020016105b7565b50506000910152565b600060018060a01b03808616835280851660208401525060606040830152825180606084015261060f8160808501602087016105b4565b601f01601f191691909101608001949350505050565b600084516106378184602089016105b4565b606085901b6bffffffffffffffffffffffff191690830190815283516106648160148401602088016105b4565b016014019594505050505056fea26469706673582212203e55a8ad893b67dec2f367a3b1d7d617313868f10a7901c755617d3d971025da64736f6c63430008100033",
    "linkReferences": {}
  },
  "methodIdentifiers": {
    "apps(bytes32)": "38bb6def",
    "create(bytes32)": "7368a8ce",
    "globals()": "c3124525",
    "owner()": "8da5cb5b",
    "registry()": "7b103999",
    "setGlobals(address)": "cc2e0a26",
    "setRegistry(address)": "a91ee0dc",
    "setTemplate(address)": "89c716d1",
    "template()": "6f2ddd93",
    "transferOwnership(address)": "f2fde38b"
  },
  "id": 131
}