{
  "abi": [
    {
      "inputs": [
        {
          "internalType": "address",
          "name": "_template",
          "type": "address"
        },
        {
          "internalType": "address",
          "name": "_registry",
          "type": "address"
        },
        {
          "internalType": "address",
          "name": "_globals",
          "type": "address"
        }
      ],
      "stateMutability": "nonpayable",
      "type": "constructor"
    },
    {
      "inputs": [],
      "name": "Factory__FailedDeployment",
      "type": "error"
    },
    {
      "inputs": [],
      "name": "Ownable__NotOwner",
      "type": "error"
    },
    {
      "inputs": [],
      "name": "Ownable__NotTransitiveOwner",
      "type": "error"
    },
    {
      "anonymous": false,
      "inputs": [
        {
          "indexed": false,
          "internalType": "address",
          "name": "id",
          "type": "address"
        },
        {
          "indexed": false,
          "internalType": "address",
          "name": "owner",
          "type": "address"
        }
      ],
      "name": "Created",
      "type": "event"
    },
    {
      "anonymous": false,
      "inputs": [
        {
          "indexed": true,
          "internalType": "address",
          "name": "previousOwner",
          "type": "address"
        },
        {
          "indexed": true,
          "internalType": "address",
          "name": "newOwner",
          "type": "address"
        }
      ],
      "name": "OwnershipTransferred",
      "type": "event"
    },
    {
      "inputs": [
        {
          "internalType": "bytes32",
          "name": "_salt",
          "type": "bytes32"
        }
      ],
      "name": "create",
      "outputs": [
        {
          "internalType": "address",
          "name": "id",
          "type": "address"
        }
      ],
      "stateMutability": "nonpayable",
      "type": "function"
    },
    {
      "inputs": [],
      "name": "globals",
      "outputs": [
        {
          "internalType": "address",
          "name": "",
          "type": "address"
        }
      ],
      "stateMutability": "view",
      "type": "function"
    },
    {
      "inputs": [],
      "name": "owner",
      "outputs": [
        {
          "internalType": "address",
          "name": "",
          "type": "address"
        }
      ],
      "stateMutability": "view",
      "type": "function"
    },
    {
      "inputs": [],
      "name": "registry",
      "outputs": [
        {
          "internalType": "address",
          "name": "",
          "type": "address"
        }
      ],
      "stateMutability": "view",
      "type": "function"
    },
    {
      "inputs": [
        {
          "internalType": "address",
          "name": "_globals",
          "type": "address"
        }
      ],
      "name": "setGlobals",
      "outputs": [],
      "stateMutability": "nonpayable",
      "type": "function"
    },
    {
      "inputs": [
        {
          "internalType": "address",
          "name": "_registry",
          "type": "address"
        }
      ],
      "name": "setRegistry",
      "outputs": [],
      "stateMutability": "nonpayable",
      "type": "function"
    },
    {
      "inputs": [
        {
          "internalType": "address",
          "name": "_template",
          "type": "address"
        }
      ],
      "name": "setTemplate",
      "outputs": [],
      "stateMutability": "nonpayable",
      "type": "function"
    },
    {
      "inputs": [],
      "name": "template",
      "outputs": [
        {
          "internalType": "address",
          "name": "",
          "type": "address"
        }
      ],
      "stateMutability": "view",
      "type": "function"
    },
    {
      "inputs": [
        {
          "internalType": "address",
          "name": "account",
          "type": "address"
        }
      ],
      "name": "transferOwnership",
      "outputs": [],
      "stateMutability": "nonpayable",
      "type": "function"
    }
  ],
  "bytecode": {
    "object": "0x608060405234801561001057600080fd5b5060405161078438038061078483398101604081905261002f9161012b565b6100383361007a565b600080546001600160a01b039485166001600160a01b03199182161790915560018054938516938216939093179092556002805491909316911617905561016e565b600061008e6100eb60201b61039c1760201c565b80546040519192506001600160a01b03808516929116907f8be0079c531659141344cd1fd0a4f28419497f9722a3daafe3b4186f6b6457e090600090a380546001600160a01b0319166001600160a01b0392909216919091179055565b7f8a22373512790c48b83a1fe2efdd2888d4a917bcdc24d0adf63e60f67168046090565b80516001600160a01b038116811461012657600080fd5b919050565b60008060006060848603121561014057600080fd5b6101498461010f565b92506101576020850161010f565b91506101656040850161010f565b90509250925092565b6106078061017d6000396000f3fe608060405234801561001057600080fd5b50600436106100935760003560e01c80638da5cb5b116100665780638da5cb5b14610102578063a91ee0dc1461010a578063c31245251461011d578063cc2e0a261461010a578063f2fde38b1461013057600080fd5b80636f2ddd93146100985780637368a8ce146100c75780637b103999146100da57806389c716d1146100ed575b600080fd5b6000546100ab906001600160a01b031681565b6040516001600160a01b03909116815260200160405180910390f35b6100ab6100d5366004610520565b610143565b6001546100ab906001600160a01b031681565b6101006100fb366004610539565b610292565b005b6100ab6102ed565b610100610118366004610539565b6102fc565b6002546100ab906001600160a01b031681565b61010061013e366004610539565b610357565b6000818152600360205260408120546001600160a01b0316156101a05760405162461bcd60e51b81526020600482015260116024820152701cd85b1d08185b1c9958591e481d5cd959607a1b604482015260640160405180910390fd5b600082815260036020526040812080546001600160a01b0319166001600160a01b038481169190911790915590546101d99116836103c0565b60015460025460405163184b955960e01b81523360048201526001600160a01b039283166024820152908216604482015291925082169063184b955990606401600060405180830381600087803b15801561023357600080fd5b505af1158015610247573d6000803e3d6000fd5b5050604080516001600160a01b03851681523360208201527f587ece4cd19692c5be1a4184503d607d45542d2aca0698c0068f52e09ccb541c935001905060405180910390a1919050565b61029a6103dd565b6001600160a01b0316336001600160a01b0316146102cb57604051632f7a8ee160e01b815260040160405180910390fd5b600080546001600160a01b0319166001600160a01b0392909216919091179055565b60006102f76103dd565b905090565b6103046103dd565b6001600160a01b0316336001600160a01b03161461033557604051632f7a8ee160e01b815260040160405180910390fd5b600180546001600160a01b0319166001600160a01b0392909216919091179055565b61035f6103dd565b6001600160a01b0316336001600160a01b03161461039057604051632f7a8ee160e01b815260040160405180910390fd5b610399816103f6565b50565b7f8a22373512790c48b83a1fe2efdd2888d4a917bcdc24d0adf63e60f67168046090565b60006103d46103ce846103ff565b8361047f565b90505b92915050565b60006103e761039c565b546001600160a01b0316919050565b610399816104b9565b6060604051806040016040528060148152602001733d602d80600a3d3981f3363d3d373d3d3d363d7360601b815250826040518060400160405280600f81526020016e5af43d82803e903d91602b57fd5bf360881b81525060405160200161046993929190610599565b6040516020818303038152906040529050919050565b60008260200183518381836000f59250506001600160a01b03821690506103d75760405163ef35ca1960e01b815260040160405180910390fd5b60006104c361039c565b80546040519192506001600160a01b03808516929116907f8be0079c531659141344cd1fd0a4f28419497f9722a3daafe3b4186f6b6457e090600090a380546001600160a01b0319166001600160a01b0392909216919091179055565b60006020828403121561053257600080fd5b5035919050565b60006020828403121561054b57600080fd5b81356001600160a01b038116811461056257600080fd5b9392505050565b6000815160005b8181101561058a5760208185018101518683015201610570565b50600093019283525090919050565b60006105a58286610569565b6bffffffffffffffffffffffff198560601b1681526105c76014820185610569565b969550505050505056fea26469706673582212202dff57af77ca791214c58841e659a94e1f0da22b9af405a4b313623a6272aa7a64736f6c63430008100033",
    "linkReferences": {}
  },
  "methodIdentifiers": {
    "create(bytes32)": "7368a8ce",
    "globals()": "c3124525",
    "owner()": "8da5cb5b",
    "registry()": "7b103999",
    "setGlobals(address)": "cc2e0a26",
    "setRegistry(address)": "a91ee0dc",
    "setTemplate(address)": "89c716d1",
    "template()": "6f2ddd93",
    "transferOwnership(address)": "f2fde38b"
  },
  "id": 126
}