{
  "abi": [
    {
      "inputs": [
        {
          "internalType": "address",
          "name": "_template",
          "type": "address"
        },
        {
          "internalType": "address",
          "name": "_registry",
          "type": "address"
        },
        {
          "internalType": "address",
          "name": "_globals",
          "type": "address"
        }
      ],
      "stateMutability": "nonpayable",
      "type": "constructor"
    },
    {
      "inputs": [],
      "name": "Factory__FailedDeployment",
      "type": "error"
    },
    {
      "inputs": [],
      "name": "Factory_nameAlreadyUsed",
      "type": "error"
    },
    {
      "inputs": [],
      "name": "Ownable__NotOwner",
      "type": "error"
    },
    {
      "inputs": [],
      "name": "Ownable__NotTransitiveOwner",
      "type": "error"
    },
    {
      "anonymous": false,
      "inputs": [
        {
          "indexed": false,
          "internalType": "address",
          "name": "id",
          "type": "address"
        },
        {
          "indexed": false,
          "internalType": "address",
          "name": "owner",
          "type": "address"
        },
        {
          "indexed": false,
          "internalType": "string",
          "name": "name",
          "type": "string"
        }
      ],
      "name": "Created",
      "type": "event"
    },
    {
      "anonymous": false,
      "inputs": [
        {
          "indexed": true,
          "internalType": "address",
          "name": "previousOwner",
          "type": "address"
        },
        {
          "indexed": true,
          "internalType": "address",
          "name": "newOwner",
          "type": "address"
        }
      ],
      "name": "OwnershipTransferred",
      "type": "event"
    },
    {
      "inputs": [
        {
          "internalType": "bytes32",
          "name": "",
          "type": "bytes32"
        }
      ],
      "name": "apps",
      "outputs": [
        {
          "internalType": "address",
          "name": "",
          "type": "address"
        }
      ],
      "stateMutability": "view",
      "type": "function"
    },
    {
      "inputs": [
        {
          "internalType": "address",
          "name": "_account",
          "type": "address"
        },
        {
          "internalType": "bytes32",
          "name": "_name",
          "type": "bytes32"
        }
      ],
      "name": "calculateDeploymentAddress",
      "outputs": [
        {
          "internalType": "address",
          "name": "",
          "type": "address"
        }
      ],
      "stateMutability": "view",
      "type": "function"
    },
    {
      "inputs": [
        {
          "internalType": "bytes32",
          "name": "_name",
          "type": "bytes32"
        },
        {
          "internalType": "address",
          "name": "_owner",
          "type": "address"
        }
      ],
      "name": "create",
      "outputs": [
        {
          "internalType": "address",
          "name": "id",
          "type": "address"
        }
      ],
      "stateMutability": "nonpayable",
      "type": "function"
    },
    {
      "inputs": [],
      "name": "globals",
      "outputs": [
        {
          "internalType": "address",
          "name": "",
          "type": "address"
        }
      ],
      "stateMutability": "view",
      "type": "function"
    },
    {
      "inputs": [],
      "name": "owner",
      "outputs": [
        {
          "internalType": "address",
          "name": "",
          "type": "address"
        }
      ],
      "stateMutability": "view",
      "type": "function"
    },
    {
      "inputs": [],
      "name": "registry",
      "outputs": [
        {
          "internalType": "address",
          "name": "",
          "type": "address"
        }
      ],
      "stateMutability": "view",
      "type": "function"
    },
    {
      "inputs": [
        {
          "internalType": "address",
          "name": "_globals",
          "type": "address"
        }
      ],
      "name": "setGlobals",
      "outputs": [],
      "stateMutability": "nonpayable",
      "type": "function"
    },
    {
      "inputs": [
        {
          "internalType": "address",
          "name": "_registry",
          "type": "address"
        }
      ],
      "name": "setRegistry",
      "outputs": [],
      "stateMutability": "nonpayable",
      "type": "function"
    },
    {
      "inputs": [
        {
          "internalType": "address",
          "name": "_template",
          "type": "address"
        }
      ],
      "name": "setTemplate",
      "outputs": [],
      "stateMutability": "nonpayable",
      "type": "function"
    },
    {
      "inputs": [],
      "name": "template",
      "outputs": [
        {
          "internalType": "address",
          "name": "",
          "type": "address"
        }
      ],
      "stateMutability": "view",
      "type": "function"
    },
    {
      "inputs": [
        {
          "internalType": "address",
          "name": "account",
          "type": "address"
        }
      ],
      "name": "transferOwnership",
      "outputs": [],
      "stateMutability": "nonpayable",
      "type": "function"
    }
  ],
  "bytecode": {
    "object": "0x608060405234801561001057600080fd5b506040516109aa3803806109aa83398101604081905261002f9161012b565b6100383361007a565b600080546001600160a01b039485166001600160a01b03199182161790915560018054938516938216939093179092556002805491909316911617905561016e565b600061008e6100eb60201b6104ac1760201c565b80546040519192506001600160a01b03808516929116907f8be0079c531659141344cd1fd0a4f28419497f9722a3daafe3b4186f6b6457e090600090a380546001600160a01b0319166001600160a01b0392909216919091179055565b7f8a22373512790c48b83a1fe2efdd2888d4a917bcdc24d0adf63e60f67168046090565b80516001600160a01b038116811461012657600080fd5b919050565b60008060006060848603121561014057600080fd5b6101498461010f565b92506101576020850161010f565b91506101656040850161010f565b90509250925092565b61082d8061017d6000396000f3fe608060405234801561001057600080fd5b50600436106100a95760003560e01c80638da5cb5b116100715780638da5cb5b14610141578063a91ee0dc14610149578063c31245251461015c578063cc2e0a2614610149578063ed8208af1461016f578063f2fde38b1461018257600080fd5b806338bb6def146100ae578063663ff5a9146100f35780636f2ddd93146101065780637b1039991461011957806389c716d11461012c575b600080fd5b6100d76100bc366004610694565b6003602052600090815260409020546001600160a01b031681565b6040516001600160a01b03909116815260200160405180910390f35b6100d76101013660046106c9565b610195565b6000546100d7906001600160a01b031681565b6001546100d7906001600160a01b031681565b61013f61013a3660046106f5565b610312565b005b6100d761036d565b61013f6101573660046106f5565b61037c565b6002546100d7906001600160a01b031681565b6100d761017d366004610710565b6103d7565b61013f6101903660046106f5565b610467565b604080516001600160a01b0383166020820152908101839052600090819060600160408051601f198184030181529181528151602092830120600081815260039093529120549091506001600160a01b03161561020557604051630e62cd8560e41b815260040160405180910390fd5b60005461021b906001600160a01b0316826104d0565b6000828152600360205260409081902080546001600160a01b0319166001600160a01b03848116918217909255600154600254935163184b955960e01b81528884166004820152908316602482015292909116604483015291935063184b955990606401600060405180830381600087803b15801561029957600080fd5b505af11580156102ad573d6000803e3d6000fd5b505050507f2bbe9d1b4d6f9393f1aeacee43586b45a4801c64fdff8910098422c886e7b1758284866040516020016102e791815260200190565b60408051601f198184030181529082905261030393929161075e565b60405180910390a15092915050565b61031a6104eb565b6001600160a01b0316336001600160a01b03161461034b57604051632f7a8ee160e01b815260040160405180910390fd5b600080546001600160a01b0319166001600160a01b0392909216919091179055565b60006103776104eb565b905090565b6103846104eb565b6001600160a01b0316336001600160a01b0316146103b557604051632f7a8ee160e01b815260040160405180910390fd5b600180546001600160a01b0319166001600160a01b0392909216919091179055565b604080516001600160a01b0384166020820152908101829052600090819060600160408051601f198184030181529181528151602092830120600081815260039093529120549091506001600160a01b03161561044757604051630e62cd8560e41b815260040160405180910390fd5b60005461045d906001600160a01b031682610504565b9150505b92915050565b61046f6104eb565b6001600160a01b0316336001600160a01b0316146104a057604051632f7a8ee160e01b815260040160405180910390fd5b6104a98161056a565b50565b7f8a22373512790c48b83a1fe2efdd2888d4a917bcdc24d0adf63e60f67168046090565b60006104e46104de84610573565b836105f3565b9392505050565b60006104f56104ac565b546001600160a01b0316919050565b60006104e461051284610573565b8051602091820120604080516001600160f81b0319818501526bffffffffffffffffffffffff193060601b16602182015260358101879052605580820193909352815180820390930183526075019052805191012090565b6104a98161062d565b6060604051806040016040528060148152602001733d602d80600a3d3981f3363d3d373d3d3d363d7360601b815250826040518060400160405280600f81526020016e5af43d82803e903d91602b57fd5bf360881b8152506040516020016105dd939291906107ab565b6040516020818303038152906040529050919050565b60008260200183518381836000f59250506001600160a01b03821690506104615760405163ef35ca1960e01b815260040160405180910390fd5b60006106376104ac565b80546040519192506001600160a01b03808516929116907f8be0079c531659141344cd1fd0a4f28419497f9722a3daafe3b4186f6b6457e090600090a380546001600160a01b0319166001600160a01b0392909216919091179055565b6000602082840312156106a657600080fd5b5035919050565b80356001600160a01b03811681146106c457600080fd5b919050565b600080604083850312156106dc57600080fd5b823591506106ec602084016106ad565b90509250929050565b60006020828403121561070757600080fd5b6104e4826106ad565b6000806040838503121561072357600080fd5b61072c836106ad565b946020939093013593505050565b60005b8381101561075557818101518382015260200161073d565b50506000910152565b600060018060a01b03808616835280851660208401525060606040830152825180606084015261079581608085016020870161073a565b601f01601f191691909101608001949350505050565b600084516107bd81846020890161073a565b606085901b6bffffffffffffffffffffffff191690830190815283516107ea81601484016020880161073a565b016014019594505050505056fea2646970667358221220ad29c41d8dac25553b4d0d5ab282aedf0c225ecc856d902b223f07c37ff6460964736f6c63430008100033",
    "linkReferences": {}
  },
  "methodIdentifiers": {
    "apps(bytes32)": "38bb6def",
    "calculateDeploymentAddress(address,bytes32)": "ed8208af",
    "create(bytes32,address)": "663ff5a9",
    "globals()": "c3124525",
    "owner()": "8da5cb5b",
    "registry()": "7b103999",
    "setGlobals(address)": "cc2e0a26",
    "setRegistry(address)": "a91ee0dc",
    "setTemplate(address)": "89c716d1",
    "template()": "6f2ddd93",
    "transferOwnership(address)": "f2fde38b"
  },
  "id": 89
}