{
  "abi": [
    {
      "inputs": [],
      "name": "Factory__FailedDeployment",
      "type": "error"
    },
    {
      "inputs": [
        {
          "internalType": "string",
          "name": "_name",
          "type": "string"
        },
        {
          "internalType": "string",
          "name": "_symbol",
          "type": "string"
        },
        {
          "internalType": "address",
          "name": "_royaltyRecipient",
          "type": "address"
        },
        {
          "internalType": "uint16",
          "name": "_royaltyBps",
          "type": "uint16"
        }
      ],
      "name": "createERC721",
      "outputs": [
        {
          "internalType": "address",
          "name": "deployment",
          "type": "address"
        }
      ],
      "stateMutability": "nonpayable",
      "type": "function"
    },
    {
      "inputs": [],
      "name": "getERC721FactoryImplementation",
      "outputs": [
        {
          "internalType": "address",
          "name": "",
          "type": "address"
        }
      ],
      "stateMutability": "view",
      "type": "function"
    }
  ],
  "bytecode": {
    "object": "0x608060405234801561001057600080fd5b50610658806100206000396000f3fe608060405234801561001057600080fd5b50600436106100365760003560e01c80634176b32a1461003b578063cf7b3ef41461005f575b600080fd5b610043610072565b6040516001600160a01b03909116815260200160405180910390f35b61004361006d366004610474565b610081565b600061007c61024e565b905090565b60008061008c61024e565b90506001600160a01b0381166100e95760405162461bcd60e51b815260206004820152601760248201527f6e6f20696d706c656d656e746174696f6e20666f756e6400000000000000000060448201526064015b60405180910390fd5b6000866040516020016100fc9190610554565b60408051808303601f19018152918152815160209283012060008181527f3626ef72f51f5c623603a4e87bdd58be9b5d5e79f29b258723727fa06628cebc9093529120549091506001600160a01b03161561018d5760405162461bcd60e51b81526020600482015260116024820152701b985b5948185b1c9958591e481d5cd959607a1b60448201526064016100e0565b61019782826102e2565b604051635881bfc160e01b81529093506001600160a01b03841690635881bfc1906101cc908a908a908a908a90600401610567565b600060405180830381600087803b1580156101e657600080fd5b505af11580156101fa573d6000803e3d6000fd5b50505060008281527f3626ef72f51f5c623603a4e87bdd58be9b5d5e79f29b258723727fa06628cebc6020526040902080546001600160a01b0319166001600160a01b038616179055505050949350505050565b60006102817fbb4b6263cbd8783810f0956bc4ed8e938c473c1eddcd7f0c606ea10e8ccc7512546001600160a01b031690565b6001600160a01b031663348202426040518163ffffffff1660e01b8152600401602060405180830381865afa1580156102be573d6000803e3d6000fd5b505050506040513d601f19601f8201168201806040525081019061007c91906105b2565b60006102f66102f0846102ff565b8361037f565b90505b92915050565b6060604051806040016040528060148152602001733d602d80600a3d3981f3363d3d373d3d3d363d7360601b815250826040518060400160405280600f81526020016e5af43d82803e903d91602b57fd5bf360881b815250604051602001610369939291906105d6565b6040516020818303038152906040529050919050565b60008260200183518381836000f59250506001600160a01b03821690506102f95760405163ef35ca1960e01b815260040160405180910390fd5b634e487b7160e01b600052604160045260246000fd5b600082601f8301126103e057600080fd5b813567ffffffffffffffff808211156103fb576103fb6103b9565b604051601f8301601f19908116603f01168101908282118183101715610423576104236103b9565b8160405283815286602085880101111561043c57600080fd5b836020870160208301376000602085830101528094505050505092915050565b6001600160a01b038116811461047157600080fd5b50565b6000806000806080858703121561048a57600080fd5b843567ffffffffffffffff808211156104a257600080fd5b6104ae888389016103cf565b955060208701359150808211156104c457600080fd5b506104d1878288016103cf565b93505060408501356104e28161045c565b9150606085013561ffff811681146104f957600080fd5b939692955090935050565b60005b8381101561051f578181015183820152602001610507565b50506000910152565b60008151808452610540816020860160208601610504565b601f01601f19169290920160200192915050565b6020815260006102f66020830184610528565b60808152600061057a6080830187610528565b828103602084015261058c8187610528565b6001600160a01b03959095166040840152505061ffff9190911660609091015292915050565b6000602082840312156105c457600080fd5b81516105cf8161045c565b9392505050565b600084516105e8818460208901610504565b606085901b6bffffffffffffffffffffffff19169083019081528351610615816014840160208801610504565b016014019594505050505056fea2646970667358221220535facddfa387869a9e7f39b186ee761e441cdaf1f8ab338db7ad174f642e5bf64736f6c63430008100033",
    "linkReferences": {}
  },
  "methodIdentifiers": {
    "createERC721(string,string,address,uint16)": "cf7b3ef4",
    "getERC721FactoryImplementation()": "4176b32a"
  },
  "id": 69
}