{
  "abi": [
    {
      "inputs": [],
      "name": "ApprovalCallerNotOwnerNorApproved",
      "type": "error"
    },
    {
      "inputs": [],
      "name": "ApprovalQueryForNonexistentToken",
      "type": "error"
    },
    {
      "inputs": [],
      "name": "BalanceQueryForZeroAddress",
      "type": "error"
    },
    {
      "inputs": [],
      "name": "ERC165Base__InvalidInterfaceId",
      "type": "error"
    },
    {
      "inputs": [],
      "name": "MintERC2309QuantityExceedsLimit",
      "type": "error"
    },
    {
      "inputs": [],
      "name": "MintToZeroAddress",
      "type": "error"
    },
    {
      "inputs": [],
      "name": "MintZeroQuantity",
      "type": "error"
    },
    {
      "inputs": [
        {
          "internalType": "address",
          "name": "operator",
          "type": "address"
        }
      ],
      "name": "OperatorNotAllowed",
      "type": "error"
    },
    {
      "inputs": [],
      "name": "Ownable__NotOwner",
      "type": "error"
    },
    {
      "inputs": [],
      "name": "Ownable__NotTransitiveOwner",
      "type": "error"
    },
    {
      "inputs": [],
      "name": "OwnerQueryForNonexistentToken",
      "type": "error"
    },
    {
      "inputs": [],
      "name": "OwnershipNotInitializedForExtraData",
      "type": "error"
    },
    {
      "inputs": [],
      "name": "TransferCallerNotOwnerNorApproved",
      "type": "error"
    },
    {
      "inputs": [],
      "name": "TransferFromIncorrectOwner",
      "type": "error"
    },
    {
      "inputs": [],
      "name": "TransferToNonERC721ReceiverImplementer",
      "type": "error"
    },
    {
      "inputs": [],
      "name": "TransferToZeroAddress",
      "type": "error"
    },
    {
      "inputs": [],
      "name": "URIQueryForNonexistentToken",
      "type": "error"
    },
    {
      "anonymous": false,
      "inputs": [
        {
          "indexed": true,
          "internalType": "address",
          "name": "owner",
          "type": "address"
        },
        {
          "indexed": true,
          "internalType": "address",
          "name": "approved",
          "type": "address"
        },
        {
          "indexed": true,
          "internalType": "uint256",
          "name": "tokenId",
          "type": "uint256"
        }
      ],
      "name": "Approval",
      "type": "event"
    },
    {
      "anonymous": false,
      "inputs": [
        {
          "indexed": true,
          "internalType": "address",
          "name": "owner",
          "type": "address"
        },
        {
          "indexed": true,
          "internalType": "address",
          "name": "operator",
          "type": "address"
        },
        {
          "indexed": false,
          "internalType": "bool",
          "name": "approved",
          "type": "bool"
        }
      ],
      "name": "ApprovalForAll",
      "type": "event"
    },
    {
      "anonymous": false,
      "inputs": [
        {
          "indexed": false,
          "internalType": "address",
          "name": "to",
          "type": "address"
        },
        {
          "indexed": false,
          "internalType": "uint256",
          "name": "quantity",
          "type": "uint256"
        },
        {
          "indexed": false,
          "internalType": "string",
          "name": "baseURI",
          "type": "string"
        }
      ],
      "name": "BatchMinted",
      "type": "event"
    },
    {
      "anonymous": false,
      "inputs": [
        {
          "indexed": true,
          "internalType": "uint256",
          "name": "fromTokenId",
          "type": "uint256"
        },
        {
          "indexed": false,
          "internalType": "uint256",
          "name": "toTokenId",
          "type": "uint256"
        },
        {
          "indexed": true,
          "internalType": "address",
          "name": "from",
          "type": "address"
        },
        {
          "indexed": true,
          "internalType": "address",
          "name": "to",
          "type": "address"
        }
      ],
      "name": "ConsecutiveTransfer",
      "type": "event"
    },
    {
      "anonymous": false,
      "inputs": [
        {
          "indexed": false,
          "internalType": "string",
          "name": "prevURI",
          "type": "string"
        },
        {
          "indexed": false,
          "internalType": "string",
          "name": "newURI",
          "type": "string"
        }
      ],
      "name": "ContractURIUpdated",
      "type": "event"
    },
    {
      "anonymous": false,
      "inputs": [
        {
          "indexed": true,
          "internalType": "address",
          "name": "newRoyaltyRecipient",
          "type": "address"
        },
        {
          "indexed": false,
          "internalType": "uint256",
          "name": "newRoyaltyBps",
          "type": "uint256"
        }
      ],
      "name": "DefaultRoyalty",
      "type": "event"
    },
    {
      "anonymous": false,
      "inputs": [
        {
          "indexed": false,
          "internalType": "address",
          "name": "to",
          "type": "address"
        },
        {
          "indexed": false,
          "internalType": "string",
          "name": "tokenURI",
          "type": "string"
        }
      ],
      "name": "Minted",
      "type": "event"
    },
    {
      "anonymous": false,
      "inputs": [
        {
          "indexed": true,
          "internalType": "address",
          "name": "previousOwner",
          "type": "address"
        },
        {
          "indexed": true,
          "internalType": "address",
          "name": "newOwner",
          "type": "address"
        }
      ],
      "name": "OwnershipTransferred",
      "type": "event"
    },
    {
      "anonymous": false,
      "inputs": [
        {
          "indexed": true,
          "internalType": "uint256",
          "name": "tokenId",
          "type": "uint256"
        },
        {
          "indexed": true,
          "internalType": "address",
          "name": "royaltyRecipient",
          "type": "address"
        },
        {
          "indexed": false,
          "internalType": "uint256",
          "name": "royaltyBps",
          "type": "uint256"
        }
      ],
      "name": "RoyaltyForToken",
      "type": "event"
    },
    {
      "anonymous": false,
      "inputs": [
        {
          "indexed": true,
          "internalType": "address",
          "name": "from",
          "type": "address"
        },
        {
          "indexed": true,
          "internalType": "address",
          "name": "to",
          "type": "address"
        },
        {
          "indexed": true,
          "internalType": "uint256",
          "name": "tokenId",
          "type": "uint256"
        }
      ],
      "name": "Transfer",
      "type": "event"
    },
    {
      "inputs": [
        {
          "internalType": "uint256",
          "name": "_index",
          "type": "uint256"
        }
      ],
      "name": "_getBatchIdAtIndex",
      "outputs": [
        {
          "internalType": "uint256",
          "name": "",
          "type": "uint256"
        }
      ],
      "stateMutability": "view",
      "type": "function"
    },
    {
      "inputs": [
        {
          "internalType": "address",
          "name": "operator",
          "type": "address"
        },
        {
          "internalType": "uint256",
          "name": "tokenId",
          "type": "uint256"
        }
      ],
      "name": "approve",
      "outputs": [],
      "stateMutability": "payable",
      "type": "function"
    },
    {
      "inputs": [
        {
          "internalType": "address",
          "name": "owner",
          "type": "address"
        }
      ],
      "name": "balanceOf",
      "outputs": [
        {
          "internalType": "uint256",
          "name": "",
          "type": "uint256"
        }
      ],
      "stateMutability": "view",
      "type": "function"
    },
    {
      "inputs": [
        {
          "internalType": "address",
          "name": "_to",
          "type": "address"
        },
        {
          "internalType": "uint256",
          "name": "_quantity",
          "type": "uint256"
        },
        {
          "internalType": "string",
          "name": "_baseURI",
          "type": "string"
        }
      ],
      "name": "batchMintTo",
      "outputs": [],
      "stateMutability": "nonpayable",
      "type": "function"
    },
    {
      "inputs": [
        {
          "internalType": "uint256",
          "name": "_tokenId",
          "type": "uint256"
        }
      ],
      "name": "burn",
      "outputs": [],
      "stateMutability": "nonpayable",
      "type": "function"
    },
    {
      "inputs": [],
      "name": "contractURI",
      "outputs": [
        {
          "internalType": "string",
          "name": "",
          "type": "string"
        }
      ],
      "stateMutability": "view",
      "type": "function"
    },
    {
      "inputs": [
        {
          "internalType": "uint256",
          "name": "_tokenId",
          "type": "uint256"
        }
      ],
      "name": "exists",
      "outputs": [
        {
          "internalType": "bool",
          "name": "",
          "type": "bool"
        }
      ],
      "stateMutability": "nonpayable",
      "type": "function"
    },
    {
      "inputs": [
        {
          "internalType": "uint256",
          "name": "tokenId",
          "type": "uint256"
        }
      ],
      "name": "getApproved",
      "outputs": [
        {
          "internalType": "address",
          "name": "",
          "type": "address"
        }
      ],
      "stateMutability": "view",
      "type": "function"
    },
    {
      "inputs": [],
      "name": "getBaseURICount",
      "outputs": [
        {
          "internalType": "uint256",
          "name": "",
          "type": "uint256"
        }
      ],
      "stateMutability": "view",
      "type": "function"
    },
    {
      "inputs": [
        {
          "internalType": "uint256",
          "name": "_index",
          "type": "uint256"
        }
      ],
      "name": "getBatchIdAtIndex",
      "outputs": [
        {
          "internalType": "uint256",
          "name": "",
          "type": "uint256"
        }
      ],
      "stateMutability": "view",
      "type": "function"
    },
    {
      "inputs": [],
      "name": "getDefaultRoyaltyInfo",
      "outputs": [
        {
          "internalType": "address",
          "name": "",
          "type": "address"
        },
        {
          "internalType": "uint16",
          "name": "",
          "type": "uint16"
        }
      ],
      "stateMutability": "view",
      "type": "function"
    },
    {
      "inputs": [
        {
          "internalType": "uint256",
          "name": "_tokenId",
          "type": "uint256"
        }
      ],
      "name": "getRoyaltyInfoForToken",
      "outputs": [
        {
          "internalType": "address",
          "name": "",
          "type": "address"
        },
        {
          "internalType": "uint16",
          "name": "",
          "type": "uint16"
        }
      ],
      "stateMutability": "view",
      "type": "function"
    },
    {
      "inputs": [
        {
          "internalType": "address",
          "name": "_owner",
          "type": "address"
        },
        {
          "internalType": "string",
          "name": "_name",
          "type": "string"
        },
        {
          "internalType": "string",
          "name": "_symbol",
          "type": "string"
        },
        {
          "internalType": "address",
          "name": "_royaltyRecipient",
          "type": "address"
        },
        {
          "internalType": "uint16",
          "name": "_royaltyBps",
          "type": "uint16"
        }
      ],
      "name": "initialize",
      "outputs": [],
      "stateMutability": "nonpayable",
      "type": "function"
    },
    {
      "inputs": [
        {
          "internalType": "address",
          "name": "owner",
          "type": "address"
        },
        {
          "internalType": "address",
          "name": "operator",
          "type": "address"
        }
      ],
      "name": "isApprovedForAll",
      "outputs": [
        {
          "internalType": "bool",
          "name": "",
          "type": "bool"
        }
      ],
      "stateMutability": "view",
      "type": "function"
    },
    {
      "inputs": [
        {
          "internalType": "address",
          "name": "_operator",
          "type": "address"
        },
        {
          "internalType": "uint256",
          "name": "_tokenId",
          "type": "uint256"
        }
      ],
      "name": "isApprovedOrOwner",
      "outputs": [
        {
          "internalType": "bool",
          "name": "isApprovedOrOwnerOf",
          "type": "bool"
        }
      ],
      "stateMutability": "view",
      "type": "function"
    },
    {
      "inputs": [
        {
          "internalType": "address",
          "name": "_to",
          "type": "address"
        },
        {
          "internalType": "string",
          "name": "_tokenURI",
          "type": "string"
        }
      ],
      "name": "mintTo",
      "outputs": [],
      "stateMutability": "nonpayable",
      "type": "function"
    },
    {
      "inputs": [
        {
          "internalType": "bytes[]",
          "name": "data",
          "type": "bytes[]"
        }
      ],
      "name": "multicall",
      "outputs": [
        {
          "internalType": "bytes[]",
          "name": "results",
          "type": "bytes[]"
        }
      ],
      "stateMutability": "nonpayable",
      "type": "function"
    },
    {
      "inputs": [],
      "name": "name",
      "outputs": [
        {
          "internalType": "string",
          "name": "",
          "type": "string"
        }
      ],
      "stateMutability": "view",
      "type": "function"
    },
    {
      "inputs": [],
      "name": "nextTokenIdToMint",
      "outputs": [
        {
          "internalType": "uint256",
          "name": "",
          "type": "uint256"
        }
      ],
      "stateMutability": "view",
      "type": "function"
    },
    {
      "inputs": [],
      "name": "owner",
      "outputs": [
        {
          "internalType": "address",
          "name": "",
          "type": "address"
        }
      ],
      "stateMutability": "view",
      "type": "function"
    },
    {
      "inputs": [
        {
          "internalType": "uint256",
          "name": "tokenId",
          "type": "uint256"
        }
      ],
      "name": "ownerOf",
      "outputs": [
        {
          "internalType": "address",
          "name": "",
          "type": "address"
        }
      ],
      "stateMutability": "view",
      "type": "function"
    },
    {
      "inputs": [
        {
          "internalType": "uint256",
          "name": "tokenId",
          "type": "uint256"
        },
        {
          "internalType": "uint256",
          "name": "salePrice",
          "type": "uint256"
        }
      ],
      "name": "royaltyInfo",
      "outputs": [
        {
          "internalType": "address",
          "name": "receiver",
          "type": "address"
        },
        {
          "internalType": "uint256",
          "name": "royaltyAmount",
          "type": "uint256"
        }
      ],
      "stateMutability": "view",
      "type": "function"
    },
    {
      "inputs": [
        {
          "internalType": "address",
          "name": "from",
          "type": "address"
        },
        {
          "internalType": "address",
          "name": "to",
          "type": "address"
        },
        {
          "internalType": "uint256",
          "name": "tokenId",
          "type": "uint256"
        }
      ],
      "name": "safeTransferFrom",
      "outputs": [],
      "stateMutability": "payable",
      "type": "function"
    },
    {
      "inputs": [
        {
          "internalType": "address",
          "name": "from",
          "type": "address"
        },
        {
          "internalType": "address",
          "name": "to",
          "type": "address"
        },
        {
          "internalType": "uint256",
          "name": "tokenId",
          "type": "uint256"
        },
        {
          "internalType": "bytes",
          "name": "data",
          "type": "bytes"
        }
      ],
      "name": "safeTransferFrom",
      "outputs": [],
      "stateMutability": "payable",
      "type": "function"
    },
    {
      "inputs": [
        {
          "internalType": "address",
          "name": "operator",
          "type": "address"
        },
        {
          "internalType": "bool",
          "name": "approved",
          "type": "bool"
        }
      ],
      "name": "setApprovalForAll",
      "outputs": [],
      "stateMutability": "nonpayable",
      "type": "function"
    },
    {
      "inputs": [
        {
          "internalType": "string",
          "name": "_uri",
          "type": "string"
        }
      ],
      "name": "setContractURI",
      "outputs": [],
      "stateMutability": "nonpayable",
      "type": "function"
    },
    {
      "inputs": [
        {
          "internalType": "address",
          "name": "_royaltyRecipient",
          "type": "address"
        },
        {
          "internalType": "uint256",
          "name": "_royaltyBps",
          "type": "uint256"
        }
      ],
      "name": "setDefaultRoyaltyInfo",
      "outputs": [],
      "stateMutability": "nonpayable",
      "type": "function"
    },
    {
      "inputs": [
        {
          "internalType": "uint256",
          "name": "_tokenId",
          "type": "uint256"
        },
        {
          "internalType": "address",
          "name": "_recipient",
          "type": "address"
        },
        {
          "internalType": "uint256",
          "name": "_bps",
          "type": "uint256"
        }
      ],
      "name": "setRoyaltyInfoForToken",
      "outputs": [],
      "stateMutability": "nonpayable",
      "type": "function"
    },
    {
      "inputs": [
        {
          "internalType": "bytes4",
          "name": "interfaceId",
          "type": "bytes4"
        }
      ],
      "name": "supportsInterface",
      "outputs": [
        {
          "internalType": "bool",
          "name": "",
          "type": "bool"
        }
      ],
      "stateMutability": "view",
      "type": "function"
    },
    {
      "inputs": [],
      "name": "symbol",
      "outputs": [
        {
          "internalType": "string",
          "name": "",
          "type": "string"
        }
      ],
      "stateMutability": "view",
      "type": "function"
    },
    {
      "inputs": [
        {
          "internalType": "uint256",
          "name": "_tokenId",
          "type": "uint256"
        }
      ],
      "name": "tokenURI",
      "outputs": [
        {
          "internalType": "string",
          "name": "",
          "type": "string"
        }
      ],
      "stateMutability": "view",
      "type": "function"
    },
    {
      "inputs": [],
      "name": "totalSupply",
      "outputs": [
        {
          "internalType": "uint256",
          "name": "",
          "type": "uint256"
        }
      ],
      "stateMutability": "view",
      "type": "function"
    },
    {
      "inputs": [
        {
          "internalType": "address",
          "name": "from",
          "type": "address"
        },
        {
          "internalType": "address",
          "name": "to",
          "type": "address"
        },
        {
          "internalType": "uint256",
          "name": "tokenId",
          "type": "uint256"
        }
      ],
      "name": "transferFrom",
      "outputs": [],
      "stateMutability": "payable",
      "type": "function"
    },
    {
      "inputs": [
        {
          "internalType": "address",
          "name": "account",
          "type": "address"
        }
      ],
      "name": "transferOwnership",
      "outputs": [],
      "stateMutability": "nonpayable",
      "type": "function"
    }
  ],
  "bytecode": {
    "object": "0x608060405234801561001057600080fd5b50612f3a806100206000396000f3fe6080604052600436106101f85760003560e01c80636352211e1161010d578063ac9650d8116100a0578063d28ce35e1161006f578063d28ce35e146105d7578063e8a3d485146105f7578063e985e9c51461060c578063ee21e14d1461062c578063f2fde38b1461064c57600080fd5b8063ac9650d81461053f578063b24f2d391461056c578063b88d4fde146105a4578063c87b56dd146105b757600080fd5b8063938e3d7b116100dc578063938e3d7b146104ca57806395d89b41146104ea5780639bcf7a15146104ff578063a22cb4651461051f57600080fd5b80636352211e1461046057806363b45e2d1461048057806370a08231146104955780638da5cb5b146104b557600080fd5b80632a55205a11610190578063430c20811161015f578063430c20811461039e5780634cc157df146103be5780634f558e79146104005780635003c7c314610420578063600dd5ea1461044057600080fd5b80632a55205a146103175780633b1475a71461035657806342842e0e1461036b57806342966c681461037e57600080fd5b8063095ea7b3116101cc578063095ea7b3146102ae57806318160ddd146102c157806323b872dd146102e45780632419f51b146102f757600080fd5b806275a317146101fd57806301ffc9a71461021f57806306fdde0314610254578063081812fc14610276575b600080fd5b34801561020957600080fd5b5061021d6102183660046125c6565b61066c565b005b34801561022b57600080fd5b5061023f61023a36600461262a565b610718565b60405190151581526020015b60405180910390f35b34801561026057600080fd5b5061026961075b565b60405161024b9190612697565b34801561028257600080fd5b506102966102913660046126aa565b6107f6565b6040516001600160a01b03909116815260200161024b565b61021d6102bc3660046126c3565b610843565b3480156102cd57600080fd5b506102d661085c565b60405190815260200161024b565b61021d6102f23660046126ed565b61087b565b34801561030357600080fd5b506102d66103123660046126aa565b6108a6565b34801561032357600080fd5b50610337610332366004612729565b6108b1565b604080516001600160a01b03909316835260208301919091520161024b565b34801561036257600080fd5b506102d66108ee565b61021d6103793660046126ed565b6108fd565b34801561038a57600080fd5b5061021d6103993660046126aa565b610922565b3480156103aa57600080fd5b5061023f6103b93660046126c3565b610930565b3480156103ca57600080fd5b506103de6103d93660046126aa565b61098f565b604080516001600160a01b03909316835261ffff90911660208301520161024b565b34801561040c57600080fd5b5061023f61041b3660046126aa565b6109a4565b34801561042c57600080fd5b5061021d61043b36600461274b565b6109af565b34801561044c57600080fd5b5061021d61045b3660046126c3565b610a5b565b34801561046c57600080fd5b5061029661047b3660046126aa565b610a8d565b34801561048c57600080fd5b506102d6610a98565b3480156104a157600080fd5b506102d66104b03660046127a2565b610aa2565b3480156104c157600080fd5b50610296610b0b565b3480156104d657600080fd5b5061021d6104e53660046127bd565b610b15565b3480156104f657600080fd5b50610269610b42565b34801561050b57600080fd5b5061021d61051a3660046127f2565b610b5a565b34801561052b57600080fd5b5061021d61053a366004612825565b610b89565b34801561054b57600080fd5b5061055f61055a36600461285c565b610b9d565b60405161024b91906128d1565b34801561057857600080fd5b50600080516020612e85833981519152546001600160a01b03811690600160a01b900461ffff166103de565b61021d6105b2366004612933565b610cb8565b3480156105c357600080fd5b506102696105d23660046126aa565b610ce5565b3480156105e357600080fd5b506102d66105f23660046126aa565b610d42565b34801561060357600080fd5b50610269610dbd565b34801561061857600080fd5b5061023f6106273660046129af565b610dc7565b34801561063857600080fd5b5061021d6106473660046129e2565b610e04565b34801561065857600080fd5b5061021d6106673660046127a2565b610fac565b610674610fee565b6106bf5760405162461bcd60e51b81526020600482015260176024820152762737ba1030baba3437b934bd32b2103a379036b4b73a1760491b60448201526064015b60405180910390fd5b6106d06106ca611011565b82611021565b6106db8260016110b5565b7f0c1b180fbb60448c5491c5ddc7c3a923854214b9ff70f90a7821333338971f92828260405161070c929190612a83565b60405180910390a15050565b6001600160e01b0319811660009081527ffc606c433378e3a7e0a6a531deac289b66caa1b4aa8554fd4ab2c6f1570f92d8602052604081205460ff165b92915050565b60606107656110cf565b600201805461077390612aa7565b80601f016020809104026020016040519081016040528092919081815260200182805461079f90612aa7565b80156107ec5780601f106107c1576101008083540402835291602001916107ec565b820191906000526020600020905b8154815290600101906020018083116107cf57829003601f168201915b5050505050905090565b6000610801826110f3565b61081e576040516333d1c03960e21b815260040160405180910390fd5b6108266110cf565b60009283526006016020525060409020546001600160a01b031690565b8161084d8161112f565b61085783836111e8565b505050565b6000806108676110cf565b600101546108736110cf565b540303919050565b826001600160a01b0381163314610895576108953361112f565b6108a08484846111f4565b50505050565b600061075582610d42565b6000806000806108c0866113d5565b90945084925061ffff1690506127106108d98287612af7565b6108e39190612b2c565b925050509250929050565b60006108f8611011565b905090565b826001600160a01b0381163314610917576109173361112f565b6108a0848484611476565b61092d816001611491565b50565b60008061093c83610a8d565b9050806001600160a01b0316846001600160a01b0316148061096357506109638185610dc7565b806109875750836001600160a01b031661097c846107f6565b6001600160a01b0316145b949350505050565b60008061099b836113d5565b91509150915091565b6000610755826110f3565b6109b7610fee565b6109fd5760405162461bcd60e51b81526020600482015260176024820152762737ba1030baba3437b934bd32b2103a379036b4b73a1760491b60448201526064016106b6565b610a0f610a08611011565b8383611600565b5050610a1b83836110b5565b7f5443e3e7d8342ad07aca2b5d0e1679e55e0fb2c09df232251ce9acbb22c75465838383604051610a4e93929190612b40565b60405180910390a1505050565b610a63610fee565b610a7f5760405162461bcd60e51b81526004016106b690612b70565b610a898282611691565b5050565b60006107558261174a565b60006108f86117ef565b60006001600160a01b038216610acb576040516323d3ad8160e21b815260040160405180910390fd5b67ffffffffffffffff610adc6110cf565b6005016000846001600160a01b03166001600160a01b0316815260200190815260200160002054169050919050565b60006108f8611805565b610b1d610fee565b610b395760405162461bcd60e51b81526004016106b690612b70565b61092d81611833565b6060610b4c6110cf565b600301805461077390612aa7565b610b62610fee565b610b7e5760405162461bcd60e51b81526004016106b690612b70565b610857838383611927565b81610b938161112f565b6108578383611a2a565b60608167ffffffffffffffff811115610bb857610bb8612513565b604051908082528060200260200182016040528015610beb57816020015b6060815260200190600190039081610bd65790505b50905060005b82811015610cb15760008030868685818110610c0f57610c0f612b98565b9050602002810190610c219190612bae565b604051610c2f929190612bfc565b600060405180830381855af49150503d8060008114610c6a576040519150601f19603f3d011682016040523d82523d6000602084013e610c6f565b606091505b50915091508115610c9d5780848481518110610c8d57610c8d612b98565b6020026020010181905250610ca7565b3d6000803e3d6000fd5b5050600101610bf1565b5092915050565b836001600160a01b0381163314610cd257610cd23361112f565b610cde85858585611aa7565b5050505050565b60606000610cf283611aeb565b805190915015610d025792915050565b6000610d0d84611bac565b905080610d1985611d56565b604051602001610d2a929190612c0c565b60405160208183030381529060405292505050919050565b6000610d4c6117ef565b8210610d8a5760405162461bcd60e51b815260206004820152600d60248201526c092dcecc2d8d2c840d2dcc8caf609b1b60448201526064016106b6565b600080516020612ea5833981519152805483908110610dab57610dab612b98565b90600052602060002001549050919050565b60606108f8611e57565b6000610dd16110cf565b6001600160a01b039384166000908152600791909101602090815260408083209490951682529290925250205460ff1690565b600080516020612ee583398151915254610100900460ff16610e3957600080516020612ee58339815191525460ff1615610e3d565b303b155b610eaf5760405162461bcd60e51b815260206004820152603760248201527f455243373231415f5f496e697469616c697a61626c653a20636f6e747261637460448201527f20697320616c726561647920696e697469616c697a656400000000000000000060648201526084016106b6565b600080516020612ee583398151915254610100900460ff16158015610eeb57600080516020612ee5833981519152805461ffff19166101011790555b610ef58585611e85565b610efe86611ec3565b610f0c838361ffff16611691565b610f2b733cc6cdda760b79bafa08df41ecfa224f810dceb66001611f3d565b610f3d6301ffc9a760e01b60016120b5565b610f4f6380ac58cd60e01b60016120b5565b610f61635b5e139f60e01b60016120b5565b610f7363152a902d60e11b60016120b5565b610f85633d96f4ff60e11b60016120b5565b8015610fa457600080516020612ee5833981519152805461ff00191690555b505050505050565b610fb4611805565b6001600160a01b0316336001600160a01b031614610fe557604051632f7a8ee160e01b815260040160405180910390fd5b61092d8161212b565b6000610ff8611805565b6001600160a01b0316336001600160a01b031614905090565b600061101b6110cf565b54919050565b60008281527fd99b3a829832048f6be28ec488f80e0f5f986977f6b9d7f4b1ab0ac1e524c9ee60208190526040909120805461105c90612aa7565b15905061109d5760405162461bcd60e51b815260206004820152600f60248201526e15549248185b1c9958591e481cd95d608a1b60448201526064016106b6565b60008381526020829052604090206108a08382612c81565b610a89828260405180602001604052806000815250612134565b7f2569078dfb4b0305704d3008e7403993ae9601b85f7ae5e742de3de8f8011c4090565b60006110fd6110cf565b54821080156107555750600160e01b6111146110cf565b60008481526004919091016020526040902054161592915050565b6daaeb6d7670e522a718067333cd4e3b1561092d57604051633185c44d60e21b81523060048201526001600160a01b03821660248201526daaeb6d7670e522a718067333cd4e9063c617113490604401602060405180830381865afa15801561119c573d6000803e3d6000fd5b505050506040513d601f19601f820116820180604052508101906111c09190612d41565b61092d57604051633b79c77360e21b81526001600160a01b03821660048201526024016106b6565b610a89828260016121aa565b60006111ff8261174a565b9050836001600160a01b0316816001600160a01b0316146112325760405162a1148160e81b815260040160405180910390fd5b60008061123e8461225f565b91509150611263818761124e3390565b6001600160a01b039081169116811491141790565b61128e576112718633610dc7565b61128e57604051632ce44b5f60e11b815260040160405180910390fd5b6001600160a01b0385166112b557604051633a954ecd60e21b815260040160405180910390fd5b80156112c057600082555b6112c86110cf565b6001600160a01b03871660009081526005919091016020526040902080546000190190556112f46110cf565b6001600160a01b03861660008181526005929092016020526040909120805460010190554260a01b17600160e11b1761132b6110cf565b60008681526004919091016020526040812091909155600160e11b841690036113a1576001840161135a6110cf565b60008281526004919091016020526040812054900361139f5761137b6110cf565b54811461139f578361138b6110cf565b600083815260049190910160205260409020555b505b83856001600160a01b0316876001600160a01b0316600080516020612ec583398151915260405160405180910390a4610fa4565b60008181527f20211f9d4ae667a819d1f429099f8aeebe331e6fa4cf5eff02d28f6060b7d6e8602090815260408083208151808301909252546001600160a01b038116808352600160a01b90910461ffff16928201929092528291600080516020612e85833981519152919015611452578051602082015161146b565b81546001600160a01b03811690600160a01b900461ffff165b935093505050915091565b61085783838360405180602001604052806000815250610cb8565b600061149c8361174a565b9050806000806114ab8661225f565b9150915084156114eb576114c081843361124e565b6114eb576114ce8333610dc7565b6114eb57604051632ce44b5f60e11b815260040160405180910390fd5b80156114f657600082555b6fffffffffffffffffffffffffffffffff61150f6110cf565b6001600160a01b038516600081815260059290920160205260409091208054929092019091554260a01b17600360e01b176115486110cf565b60008881526004919091016020526040812091909155600160e11b851690036115be57600186016115776110cf565b6000828152600491909101602052604081205490036115bc576115986110cf565b5481146115bc57846115a86110cf565b600083815260049190910160205260409020555b505b60405186906000906001600160a01b03861690600080516020612ec5833981519152908390a46115ec6110cf565b600190810180549091019055505050505050565b60008061160d8486612d5e565b600080516020612ea583398151915280546001810182557f1ced185bbf9482d38b4865a74eda9abbaa19023b28195b15e6e70dbf9d8ee7e70182905560008281527f09b74f8b9562e7c2d8089de59107ad15ceff2ad41fceff9c15cfd0131840330b60205260409020919350839250906116878582612c81565b5050935093915050565b6127108111156116d55760405162461bcd60e51b815260206004820152600f60248201526e45786365656473206d61782062707360881b60448201526064016106b6565b6000600080516020612e8583398151915280546001600160a01b0385166001600160b01b03199091168117600160a01b61ffff861602178255604051848152919250907f90d7ec04bcb8978719414f82e52e4cb651db41d0e6f8cea6118c2191e6183adb9060200160405180910390a2505050565b60006117546110cf565b600083815260049190910160205260408120549150600160e01b821690036117d657806000036117d1576117866110cf565b5482106117a657604051636f96cda160e11b815260040160405180910390fd5b6117ae6110cf565b6000199092016000818152600493909301602052604090922054905080156117a6575b919050565b604051636f96cda160e11b815260040160405180910390fd5b6000600080516020612ea583398151915261101b565b7f8a22373512790c48b83a1fe2efdd2888d4a917bcdc24d0adf63e60f671680460546001600160a01b031690565b7f377d51b8f3c321ac06c08d08eb5924030a0062cf68630d0ace73345d5f49f6fd8054600090829061186490612aa7565b80601f016020809104026020016040519081016040528092919081815260200182805461189090612aa7565b80156118dd5780601f106118b2576101008083540402835291602001916118dd565b820191906000526020600020905b8154815290600101906020018083116118c057829003601f168201915b50505050509050828260000190816118f59190612c81565b507fc9c7c3fe08b88b4df9d4d47ef47d2c43d55c025a0ba88ca442580ed9e7348a168184604051610a4e929190612d71565b61271081111561196b5760405162461bcd60e51b815260206004820152600f60248201526e45786365656473206d61782062707360881b60448201526064016106b6565b6040805180820182526001600160a01b0384811680835261ffff858116602080860191825260008a81527f20211f9d4ae667a819d1f429099f8aeebe331e6fa4cf5eff02d28f6060b7d6e88252879020955186549251909316600160a01b026001600160b01b031990921692909416919091171790925582518481529251600080516020612e858339815191529387927f7365cf4122f072a3365c20d54eff9b38d73c096c28e1892ec8f5b0e403a0f12d92918290030190a350505050565b80611a336110cf565b336000818152600792909201602090815260408084206001600160a01b03881680865290835293819020805460ff19169515159590951790945592518415158152919290917f17307eab39ab6107e8899845ad3d59bd9653f200f220920489ca2b5937696c31910160405180910390a35050565b611ab284848461087b565b6001600160a01b0383163b156108a057611ace84848484612287565b6108a0576040516368d2bf6b60e11b815260040160405180910390fd5b60008181527fd99b3a829832048f6be28ec488f80e0f5f986977f6b9d7f4b1ab0ac1e524c9ee60205260409020805460609190611b2790612aa7565b80601f0160208091040260200160405190810160405280929190818152602001828054611b5390612aa7565b8015611ba05780601f10611b7557610100808354040283529160200191611ba0565b820191906000526020600020905b815481529060010190602001808311611b8357829003601f168201915b50505050509050919050565b6060600080516020612ea58339815191526000611bc76117ef565b825460408051602080840282018101909252828152929350600092918591830182828015611c1457602002820191906000526020600020905b815481526020019060010190808311611c00575b5050505050905060005b82811015611d1b57818181518110611c3857611c38612b98565b6020026020010151861015611d0957836001016000838381518110611c5f57611c5f612b98565b602002602001015181526020019081526020016000208054611c8090612aa7565b80601f0160208091040260200160405190810160405280929190818152602001828054611cac90612aa7565b8015611cf95780601f10611cce57610100808354040283529160200191611cf9565b820191906000526020600020905b815481529060010190602001808311611cdc57829003601f168201915b5050505050945050505050919050565b611d14600182612d5e565b9050611c1e565b5060405162461bcd60e51b815260206004820152600f60248201526e125b9d985b1a59081d1bdad95b9259608a1b60448201526064016106b6565b606081600003611d7d5750506040805180820190915260018152600360fc1b602082015290565b8160005b8115611da75780611d9181612d96565b9150611da09050600a83612b2c565b9150611d81565b60008167ffffffffffffffff811115611dc257611dc2612513565b6040519080825280601f01601f191660200182016040528015611dec576020820181803683370190505b5090505b841561098757611e01600183612daf565b9150611e0e600a86612dc2565b611e19906030612d5e565b60f81b818381518110611e2e57611e2e612b98565b60200101906001600160f81b031916908160001a905350611e50600a86612b2c565b9450611df0565b60607f377d51b8f3c321ac06c08d08eb5924030a0062cf68630d0ace73345d5f49f6fd805461077390612aa7565b600080516020612ee583398151915254610100900460ff16611eb95760405162461bcd60e51b81526004016106b690612dd6565b610a898282612372565b7f8a22373512790c48b83a1fe2efdd2888d4a917bcdc24d0adf63e60f67168046080546040516001600160a01b038481169216907f8be0079c531659141344cd1fd0a4f28419497f9722a3daafe3b4186f6b6457e090600090a380546001600160a01b0319166001600160a01b0392909216919091179055565b6daaeb6d7670e522a718067333cd4e3b15610a895760405163c3c5a54760e01b81523060048201526daaeb6d7670e522a718067333cd4e9063c3c5a547906024016020604051808303816000875af1158015611f9d573d6000803e3d6000fd5b505050506040513d601f19601f82011682018060405250810190611fc19190612d41565b610a8957801561203557604051633e9f1edf60e11b81523060048201526001600160a01b03831660248201526daaeb6d7670e522a718067333cd4e90637d3e3dbe906044015b600060405180830381600087803b15801561202157600080fd5b505af1158015610fa4573d6000803e3d6000fd5b6001600160a01b038216156120845760405163a0af290360e01b81523060048201526001600160a01b03831660248201526daaeb6d7670e522a718067333cd4e9063a0af290390604401612007565b604051632210724360e11b81523060048201526daaeb6d7670e522a718067333cd4e90634420e48690602401612007565b6001600160e01b031980831690036120e05760405163b0a19dd560e01b815260040160405180910390fd5b6001600160e01b03199190911660009081527ffc606c433378e3a7e0a6a531deac289b66caa1b4aa8554fd4ab2c6f1570f92d860205260409020805460ff1916911515919091179055565b61092d81611ec3565b61213e83836123e5565b6001600160a01b0383163b156108575760006121586110cf565b5490508281035b6121726000868380600101945086612287565b61218f576040516368d2bf6b60e11b815260040160405180910390fd5b81811061215f578161219f6110cf565b5414610cde57600080fd5b60006121b583610a8d565b905081156121f457336001600160a01b038216146121f4576121d78133610dc7565b6121f4576040516367d9dca160e11b815260040160405180910390fd5b836121fd6110cf565b6000858152600691909101602052604080822080546001600160a01b0319166001600160a01b0394851617905551859287811692908516917f8c5be1e5ebec7d5bd14f71427d1e84f3dd0314c0f7b2291e5b200ac8c7c3b9259190a450505050565b600080600061226c6110cf565b60009485526006016020525050604090912080549092909150565b604051630a85bd0160e11b81526000906001600160a01b0385169063150b7a02906122bc903390899088908890600401612e2a565b6020604051808303816000875af19250505080156122f7575060408051601f3d908101601f191682019092526122f491810190612e67565b60015b612355573d808015612325576040519150601f19603f3d011682016040523d82523d6000602084013e61232a565b606091505b50805160000361234d576040516368d2bf6b60e11b815260040160405180910390fd5b805181602001fd5b6001600160e01b031916630a85bd0160e11b149050949350505050565b600080516020612ee583398151915254610100900460ff166123a65760405162461bcd60e51b81526004016106b690612dd6565b816123af6110cf565b600201906123bd9082612c81565b50806123c76110cf565b600301906123d59082612c81565b5060006123e06110cf565b555050565b60006123ef6110cf565b54905060008290036124145760405163b562e8dd60e01b815260040160405180910390fd5b6801000000000000000182026124286110cf565b6001600160a01b038516600081815260059290920160205260409091208054929092019091554260a01b6001841460e11b17176124636110cf565b600083815260049190910160205260408120919091556001600160a01b038416908383019083908390600080516020612ec58339815191528180a4600183015b8181146124c95780836000600080516020612ec5833981519152600080a46001016124a3565b50816000036124ea57604051622e076360e81b815260040160405180910390fd5b806124f36110cf565b55506108579050565b80356001600160a01b03811681146117d157600080fd5b634e487b7160e01b600052604160045260246000fd5b600067ffffffffffffffff8084111561254457612544612513565b604051601f8501601f19908116603f0116810190828211818310171561256c5761256c612513565b8160405280935085815286868601111561258557600080fd5b858560208301376000602087830101525050509392505050565b600082601f8301126125b057600080fd5b6125bf83833560208501612529565b9392505050565b600080604083850312156125d957600080fd5b6125e2836124fc565b9150602083013567ffffffffffffffff8111156125fe57600080fd5b61260a8582860161259f565b9150509250929050565b6001600160e01b03198116811461092d57600080fd5b60006020828403121561263c57600080fd5b81356125bf81612614565b60005b8381101561266257818101518382015260200161264a565b50506000910152565b60008151808452612683816020860160208601612647565b601f01601f19169290920160200192915050565b6020815260006125bf602083018461266b565b6000602082840312156126bc57600080fd5b5035919050565b600080604083850312156126d657600080fd5b6126df836124fc565b946020939093013593505050565b60008060006060848603121561270257600080fd5b61270b846124fc565b9250612719602085016124fc565b9150604084013590509250925092565b6000806040838503121561273c57600080fd5b50508035926020909101359150565b60008060006060848603121561276057600080fd5b612769846124fc565b925060208401359150604084013567ffffffffffffffff81111561278c57600080fd5b6127988682870161259f565b9150509250925092565b6000602082840312156127b457600080fd5b6125bf826124fc565b6000602082840312156127cf57600080fd5b813567ffffffffffffffff8111156127e657600080fd5b6109878482850161259f565b60008060006060848603121561280757600080fd5b83359250612719602085016124fc565b801515811461092d57600080fd5b6000806040838503121561283857600080fd5b612841836124fc565b9150602083013561285181612817565b809150509250929050565b6000806020838503121561286f57600080fd5b823567ffffffffffffffff8082111561288757600080fd5b818501915085601f83011261289b57600080fd5b8135818111156128aa57600080fd5b8660208260051b85010111156128bf57600080fd5b60209290920196919550909350505050565b6000602080830181845280855180835260408601915060408160051b870101925083870160005b8281101561292657603f1988860301845261291485835161266b565b945092850192908501906001016128f8565b5092979650505050505050565b6000806000806080858703121561294957600080fd5b612952856124fc565b9350612960602086016124fc565b925060408501359150606085013567ffffffffffffffff81111561298357600080fd5b8501601f8101871361299457600080fd5b6129a387823560208401612529565b91505092959194509250565b600080604083850312156129c257600080fd5b6129cb836124fc565b91506129d9602084016124fc565b90509250929050565b600080600080600060a086880312156129fa57600080fd5b612a03866124fc565b9450602086013567ffffffffffffffff80821115612a2057600080fd5b612a2c89838a0161259f565b95506040880135915080821115612a4257600080fd5b50612a4f8882890161259f565b935050612a5e606087016124fc565b9150608086013561ffff81168114612a7557600080fd5b809150509295509295909350565b6001600160a01b03831681526040602082018190526000906109879083018461266b565b600181811c90821680612abb57607f821691505b602082108103612adb57634e487b7160e01b600052602260045260246000fd5b50919050565b634e487b7160e01b600052601160045260246000fd5b6000816000190483118215151615612b1157612b11612ae1565b500290565b634e487b7160e01b600052601260045260246000fd5b600082612b3b57612b3b612b16565b500490565b60018060a01b0384168152826020820152606060408201526000612b67606083018461266b565b95945050505050565b6020808252600e908201526d139bdd08185d5d1a1bdc9a5e995960921b604082015260600190565b634e487b7160e01b600052603260045260246000fd5b6000808335601e19843603018112612bc557600080fd5b83018035915067ffffffffffffffff821115612be057600080fd5b602001915036819003821315612bf557600080fd5b9250929050565b8183823760009101908152919050565b60008351612c1e818460208801612647565b835190830190612c32818360208801612647565b01949350505050565b601f82111561085757600081815260208120601f850160051c81016020861015612c625750805b601f850160051c820191505b81811015610fa457828155600101612c6e565b815167ffffffffffffffff811115612c9b57612c9b612513565b612caf81612ca98454612aa7565b84612c3b565b602080601f831160018114612ce45760008415612ccc5750858301515b600019600386901b1c1916600185901b178555610fa4565b600085815260208120601f198616915b82811015612d1357888601518255948401946001909101908401612cf4565b5085821015612d315787850151600019600388901b60f8161c191681555b5050505050600190811b01905550565b600060208284031215612d5357600080fd5b81516125bf81612817565b8082018082111561075557610755612ae1565b604081526000612d84604083018561266b565b8281036020840152612b67818561266b565b600060018201612da857612da8612ae1565b5060010190565b8181038181111561075557610755612ae1565b600082612dd157612dd1612b16565b500690565b60208082526034908201527f455243373231415f5f496e697469616c697a61626c653a20636f6e7472616374604082015273206973206e6f7420696e697469616c697a696e6760601b606082015260800190565b6001600160a01b0385811682528416602082015260408101839052608060608201819052600090612e5d9083018461266b565b9695505050505050565b600060208284031215612e7957600080fd5b81516125bf8161261456fe20211f9d4ae667a819d1f429099f8aeebe331e6fa4cf5eff02d28f6060b7d6e709b74f8b9562e7c2d8089de59107ad15ceff2ad41fceff9c15cfd0131840330addf252ad1be2c89b69c2b068fc378daa952ba7f163c4a11628f55a4df523b3efee151c8401928dc223602bb187aff91b9a56c7cae5476ef1b3287b085a16c85fa264697066735822122026665f31968d6f1fb615a01d9e605c6c3e7cb3ba2ebfa568d00772ffb0dd8fc264736f6c63430008100033",
    "linkReferences": {}
  },
  "methodIdentifiers": {
    "_getBatchIdAtIndex(uint256)": "d28ce35e",
    "approve(address,uint256)": "095ea7b3",
    "balanceOf(address)": "70a08231",
    "batchMintTo(address,uint256,string)": "5003c7c3",
    "burn(uint256)": "42966c68",
    "contractURI()": "e8a3d485",
    "exists(uint256)": "4f558e79",
    "getApproved(uint256)": "081812fc",
    "getBaseURICount()": "63b45e2d",
    "getBatchIdAtIndex(uint256)": "2419f51b",
    "getDefaultRoyaltyInfo()": "b24f2d39",
    "getRoyaltyInfoForToken(uint256)": "4cc157df",
    "initialize(address,string,string,address,uint16)": "ee21e14d",
    "isApprovedForAll(address,address)": "e985e9c5",
    "isApprovedOrOwner(address,uint256)": "430c2081",
    "mintTo(address,string)": "0075a317",
    "multicall(bytes[])": "ac9650d8",
    "name()": "06fdde03",
    "nextTokenIdToMint()": "3b1475a7",
    "owner()": "8da5cb5b",
    "ownerOf(uint256)": "6352211e",
    "royaltyInfo(uint256,uint256)": "2a55205a",
    "safeTransferFrom(address,address,uint256)": "42842e0e",
    "safeTransferFrom(address,address,uint256,bytes)": "b88d4fde",
    "setApprovalForAll(address,bool)": "a22cb465",
    "setContractURI(string)": "938e3d7b",
    "setDefaultRoyaltyInfo(address,uint256)": "600dd5ea",
    "setRoyaltyInfoForToken(uint256,address,uint256)": "9bcf7a15",
    "supportsInterface(bytes4)": "01ffc9a7",
    "symbol()": "95d89b41",
    "tokenURI(uint256)": "c87b56dd",
    "totalSupply()": "18160ddd",
    "transferFrom(address,address,uint256)": "23b872dd",
    "transferOwnership(address)": "f2fde38b"
  },
  "id": 144
}