{
  "abi": [
    {
      "inputs": [],
      "name": "Ownable__NotOwner",
      "type": "error"
    },
    {
      "inputs": [],
      "name": "Ownable__NotTransitiveOwner",
      "type": "error"
    },
    {
      "inputs": [],
      "name": "RewardsFacet_InsufficientBalance",
      "type": "error"
    },
    {
      "inputs": [],
      "name": "RewardsFacet_NotAuthorized",
      "type": "error"
    },
    {
      "inputs": [],
      "name": "SafeOwnable__NotNomineeOwner",
      "type": "error"
    },
    {
      "anonymous": false,
      "inputs": [
        {
          "indexed": false,
          "internalType": "address",
          "name": "token",
          "type": "address"
        },
        {
          "indexed": false,
          "internalType": "uint256",
          "name": "quantity",
          "type": "uint256"
        },
        {
          "indexed": false,
          "internalType": "address",
          "name": "to",
          "type": "address"
        },
        {
          "indexed": false,
          "internalType": "bytes32",
          "name": "id",
          "type": "bytes32"
        },
        {
          "indexed": false,
          "internalType": "string",
          "name": "uri",
          "type": "string"
        }
      ],
      "name": "BadgeMinted",
      "type": "event"
    },
    {
      "anonymous": false,
      "inputs": [
        {
          "indexed": false,
          "internalType": "address",
          "name": "token",
          "type": "address"
        },
        {
          "indexed": false,
          "internalType": "address",
          "name": "to",
          "type": "address"
        },
        {
          "indexed": false,
          "internalType": "uint256",
          "name": "tokenId",
          "type": "uint256"
        },
        {
          "indexed": false,
          "internalType": "bytes32",
          "name": "id",
          "type": "bytes32"
        },
        {
          "indexed": false,
          "internalType": "string",
          "name": "uri",
          "type": "string"
        }
      ],
      "name": "BadgeTransferred",
      "type": "event"
    },
    {
      "anonymous": false,
      "inputs": [
        {
          "indexed": true,
          "internalType": "address",
          "name": "previousOwner",
          "type": "address"
        },
        {
          "indexed": true,
          "internalType": "address",
          "name": "newOwner",
          "type": "address"
        }
      ],
      "name": "OwnershipTransferred",
      "type": "event"
    },
    {
      "anonymous": false,
      "inputs": [
        {
          "indexed": false,
          "internalType": "address",
          "name": "token",
          "type": "address"
        },
        {
          "indexed": false,
          "internalType": "address",
          "name": "to",
          "type": "address"
        },
        {
          "indexed": false,
          "internalType": "uint256",
          "name": "amount",
          "type": "uint256"
        },
        {
          "indexed": false,
          "internalType": "bytes32",
          "name": "id",
          "type": "bytes32"
        },
        {
          "indexed": false,
          "internalType": "string",
          "name": "uri",
          "type": "string"
        }
      ],
      "name": "TokenMinted",
      "type": "event"
    },
    {
      "anonymous": false,
      "inputs": [
        {
          "indexed": false,
          "internalType": "address",
          "name": "token",
          "type": "address"
        },
        {
          "indexed": false,
          "internalType": "address",
          "name": "to",
          "type": "address"
        },
        {
          "indexed": false,
          "internalType": "uint256",
          "name": "amount",
          "type": "uint256"
        },
        {
          "indexed": false,
          "internalType": "bytes32",
          "name": "id",
          "type": "bytes32"
        },
        {
          "indexed": false,
          "internalType": "string",
          "name": "uri",
          "type": "string"
        }
      ],
      "name": "TokenTransferred",
      "type": "event"
    },
    {
      "inputs": [],
      "name": "acceptOwnership",
      "outputs": [],
      "stateMutability": "nonpayable",
      "type": "function"
    },
    {
      "inputs": [
        {
          "internalType": "address",
          "name": "_token",
          "type": "address"
        },
        {
          "internalType": "address",
          "name": "_to",
          "type": "address"
        },
        {
          "internalType": "uint256",
          "name": "_amount",
          "type": "uint256"
        },
        {
          "internalType": "bytes32",
          "name": "_id",
          "type": "bytes32"
        },
        {
          "internalType": "string",
          "name": "_uri",
          "type": "string"
        }
      ],
      "name": "mintERC20",
      "outputs": [],
      "stateMutability": "nonpayable",
      "type": "function"
    },
    {
      "inputs": [
        {
          "internalType": "address",
          "name": "_token",
          "type": "address"
        },
        {
          "internalType": "address",
          "name": "_to",
          "type": "address"
        },
        {
          "internalType": "uint256",
          "name": "_quantity",
          "type": "uint256"
        },
        {
          "internalType": "string",
          "name": "_baseURI",
          "type": "string"
        },
        {
          "internalType": "bytes32",
          "name": "_id",
          "type": "bytes32"
        },
        {
          "internalType": "string",
          "name": "_uri",
          "type": "string"
        }
      ],
      "name": "mintERC721",
      "outputs": [],
      "stateMutability": "nonpayable",
      "type": "function"
    },
    {
      "inputs": [
        {
          "internalType": "bytes[]",
          "name": "data",
          "type": "bytes[]"
        }
      ],
      "name": "multicall",
      "outputs": [
        {
          "internalType": "bytes[]",
          "name": "results",
          "type": "bytes[]"
        }
      ],
      "stateMutability": "nonpayable",
      "type": "function"
    },
    {
      "inputs": [],
      "name": "nomineeOwner",
      "outputs": [
        {
          "internalType": "address",
          "name": "",
          "type": "address"
        }
      ],
      "stateMutability": "view",
      "type": "function"
    },
    {
      "inputs": [],
      "name": "owner",
      "outputs": [
        {
          "internalType": "address",
          "name": "",
          "type": "address"
        }
      ],
      "stateMutability": "view",
      "type": "function"
    },
    {
      "inputs": [
        {
          "internalType": "address",
          "name": "_holder",
          "type": "address"
        },
        {
          "internalType": "address",
          "name": "_token",
          "type": "address"
        },
        {
          "internalType": "address",
          "name": "_to",
          "type": "address"
        },
        {
          "internalType": "uint256",
          "name": "_amount",
          "type": "uint256"
        },
        {
          "internalType": "bytes32",
          "name": "_id",
          "type": "bytes32"
        },
        {
          "internalType": "string",
          "name": "_uri",
          "type": "string"
        }
      ],
      "name": "transferERC20",
      "outputs": [],
      "stateMutability": "nonpayable",
      "type": "function"
    },
    {
      "inputs": [
        {
          "internalType": "address",
          "name": "_token",
          "type": "address"
        },
        {
          "internalType": "address",
          "name": "_holder",
          "type": "address"
        },
        {
          "internalType": "address",
          "name": "_to",
          "type": "address"
        },
        {
          "internalType": "uint256",
          "name": "_tokenId",
          "type": "uint256"
        },
        {
          "internalType": "bytes32",
          "name": "_id",
          "type": "bytes32"
        },
        {
          "internalType": "string",
          "name": "_uri",
          "type": "string"
        }
      ],
      "name": "transferERC721",
      "outputs": [],
      "stateMutability": "nonpayable",
      "type": "function"
    },
    {
      "inputs": [
        {
          "internalType": "address",
          "name": "account",
          "type": "address"
        }
      ],
      "name": "transferOwnership",
      "outputs": [],
      "stateMutability": "nonpayable",
      "type": "function"
    }
  ],
  "bytecode": {
    "object": "0x608060405234801561001057600080fd5b50610d2b806100206000396000f3fe608060405234801561001057600080fd5b50600436106100935760003560e01c80638da5cb5b116100665780638da5cb5b146100ed578063a5a3fc5d146100f5578063ac9650d814610108578063cf141e3e14610128578063f2fde38b1461013b57600080fd5b80633a8e49c114610098578063595f5713146100ad57806379ba5097146100c05780638ab5150a146100c8575b600080fd5b6100ab6100a63660046108a5565b61014e565b005b6100ab6100bb36600461092e565b610200565b6100ab6102d1565b6100d0610314565b6040516001600160a01b0390911681526020015b60405180910390f35b6100d0610323565b6100ab6101033660046109a6565b61032d565b61011b610116366004610a4a565b610402565b6040516100e49190610abf565b6100ab6101363660046108a5565b61051d565b6100ab610149366004610b51565b6105be565b6040516323b872dd60e01b81523360048201526001600160a01b038681166024830152604482018690528716906323b872dd90606401600060405180830381600087803b15801561019e57600080fd5b505af11580156101b2573d6000803e3d6000fd5b505050507f39cbba0736c6fe386a3a0d95695ae1f67184f002424b22113d5511a917b33f328686868686866040516101ef96959493929190610b9c565b60405180910390a150505050505050565b61020986610603565b61022657604051636732fc4f60e01b815260040160405180910390fd5b6040516308934a5f60e31b81526001600160a01b0386811660048301526024820186905287169063449a52f890604401600060405180830381600087803b15801561027057600080fd5b505af1158015610284573d6000803e3d6000fd5b505050507f243a7413e49af7f396993896db0019a06174fdf9e0749d1413801052c0cf61598686868686866040516102c196959493929190610b9c565b60405180910390a1505050505050565b6102d96106f4565b6001600160a01b0316336001600160a01b03161461030a5760405163efd1052d60e01b815260040160405180910390fd5b610312610727565b565b600061031e6106f4565b905090565b600061031e610761565b61033688610603565b61035357604051636732fc4f60e01b815260040160405180910390fd5b604051635003c7c360e01b81526001600160a01b03891690635003c7c390610385908a908a908a908a90600401610be3565b600060405180830381600087803b15801561039f57600080fd5b505af11580156103b3573d6000803e3d6000fd5b505050507fd84c768926be41219bbffb88320e0813db4706cc4d6054167d9ca4d0babe6d398887898686866040516103f096959493929190610c15565b60405180910390a15050505050505050565b60608167ffffffffffffffff81111561041d5761041d610c50565b60405190808252806020026020018201604052801561045057816020015b606081526020019060019003908161043b5790505b50905060005b82811015610516576000803086868581811061047457610474610c66565b90506020028101906104869190610c7c565b604051610494929190610cc3565b600060405180830381855af49150503d80600081146104cf576040519150601f19603f3d011682016040523d82523d6000602084013e6104d4565b606091505b5091509150811561050257808484815181106104f2576104f2610c66565b602002602001018190525061050c565b3d6000803e3d6000fd5b5050600101610456565b5092915050565b6040516323b872dd60e01b81523360048201526001600160a01b038681166024830152604482018690528816906323b872dd90606401600060405180830381600087803b15801561056d57600080fd5b505af1158015610581573d6000803e3d6000fd5b505050507f890342b0bae59e961c2dc8bf894b8707684aa76ccf593d42a6a5dde3bf55cec68786868686866040516101ef96959493929190610b9c565b6105c6610761565b6001600160a01b0316336001600160a01b0316146105f757604051632f7a8ee160e01b815260040160405180910390fd5b61060081610789565b50565b604051632474521560e21b8152600060048201819052336024830152906001600160a01b038316906391d14854906044016020604051808303816000875af1158015610653573d6000803e3d6000fd5b505050506040513d601f19601f820116820180604052508101906106779190610cd3565b806106ee5750604051632474521560e21b8152600160048201523360248201526001600160a01b038316906391d14854906044016020604051808303816000875af11580156106ca573d6000803e3d6000fd5b505050506040513d601f19601f820116820180604052508101906106ee9190610cd3565b92915050565b60007f24aa1f7b31fd188a8d3ecfb06bc55c806040e59b03bd4396283442fce66178905b546001600160a01b0316919050565b610730336107c6565b7f24aa1f7b31fd188a8d3ecfb06bc55c806040e59b03bd4396283442fce661789080546001600160a01b0319169055565b60007f8a22373512790c48b83a1fe2efdd2888d4a917bcdc24d0adf63e60f671680460610718565b7f24aa1f7b31fd188a8d3ecfb06bc55c806040e59b03bd4396283442fce661789080546001600160a01b0319166001600160a01b03831617905550565b7f8a22373512790c48b83a1fe2efdd2888d4a917bcdc24d0adf63e60f67168046080546040516001600160a01b038481169216907f8be0079c531659141344cd1fd0a4f28419497f9722a3daafe3b4186f6b6457e090600090a380546001600160a01b0319166001600160a01b0392909216919091179055565b80356001600160a01b038116811461085757600080fd5b919050565b60008083601f84011261086e57600080fd5b50813567ffffffffffffffff81111561088657600080fd5b60208301915083602082850101111561089e57600080fd5b9250929050565b600080600080600080600060c0888a0312156108c057600080fd5b6108c988610840565b96506108d760208901610840565b95506108e560408901610840565b9450606088013593506080880135925060a088013567ffffffffffffffff81111561090f57600080fd5b61091b8a828b0161085c565b989b979a50959850939692959293505050565b60008060008060008060a0878903121561094757600080fd5b61095087610840565b955061095e60208801610840565b94506040870135935060608701359250608087013567ffffffffffffffff81111561098857600080fd5b61099489828a0161085c565b979a9699509497509295939492505050565b60008060008060008060008060c0898b0312156109c257600080fd5b6109cb89610840565b97506109d960208a01610840565b965060408901359550606089013567ffffffffffffffff808211156109fd57600080fd5b610a098c838d0161085c565b909750955060808b0135945060a08b0135915080821115610a2957600080fd5b50610a368b828c0161085c565b999c989b5096995094979396929594505050565b60008060208385031215610a5d57600080fd5b823567ffffffffffffffff80821115610a7557600080fd5b818501915085601f830112610a8957600080fd5b813581811115610a9857600080fd5b8660208260051b8501011115610aad57600080fd5b60209290920196919550909350505050565b6000602080830181845280855180835260408601915060408160051b87010192508387016000805b83811015610b4357888603603f1901855282518051808852835b81811015610b1c578281018a01518982018b01528901610b01565b508781018901849052601f01601f1916909601870195509386019391860191600101610ae7565b509398975050505050505050565b600060208284031215610b6357600080fd5b610b6c82610840565b9392505050565b81835281816020850137506000828201602090810191909152601f909101601f19169091010190565b6001600160a01b03878116825286166020820152604081018590526060810184905260a060808201819052600090610bd79083018486610b73565b98975050505050505050565b60018060a01b0385168152836020820152606060408201526000610c0b606083018486610b73565b9695505050505050565b6001600160a01b03878116825260208201879052851660408201526060810184905260a060808201819052600090610bd79083018486610b73565b634e487b7160e01b600052604160045260246000fd5b634e487b7160e01b600052603260045260246000fd5b6000808335601e19843603018112610c9357600080fd5b83018035915067ffffffffffffffff821115610cae57600080fd5b60200191503681900382131561089e57600080fd5b8183823760009101908152919050565b600060208284031215610ce557600080fd5b81518015158114610b6c57600080fdfea26469706673582212206b9040ad45df72364ba0b7881c436f1e6e0b1157e7d44d5bf5c61a7b5b9ca85264736f6c63430008100033",
    "linkReferences": {}
  },
  "methodIdentifiers": {
    "acceptOwnership()": "79ba5097",
    "mintERC20(address,address,uint256,bytes32,string)": "595f5713",
    "mintERC721(address,address,uint256,string,bytes32,string)": "a5a3fc5d",
    "multicall(bytes[])": "ac9650d8",
    "nomineeOwner()": "8ab5150a",
    "owner()": "8da5cb5b",
    "transferERC20(address,address,address,uint256,bytes32,string)": "3a8e49c1",
    "transferERC721(address,address,address,uint256,bytes32,string)": "cf141e3e",
    "transferOwnership(address)": "f2fde38b"
  },
  "id": 162
}